:020000040800F2
:1000000028040020D5000008310C0008A10B0008CE
:1000100000000000000000000000000000000000E0
:100020000000000000000000000000007B0C000841
:100030000000000000000000790C00087D0C0008A2
:10004000E7000008E7000008E7000008E7000008F4
:10005000E7000008E7000008E7000008E7000008E4
:10006000E7000008E7000008E7000008E7000008D4
:10007000E7000008E7000008E7000008E7000008C4
:10008000E7000008E7000008E700000800000000A3
:10009000E7000008E7000008E7000008E7000008A4
:1000A000E7000008E7000008E7000008E700000894
:1000B000E7000008E700000800000000E700000873
:1000C0000348854600F03CF800480047510D000801
:1000D000280400200448804704480047FEE7FEE764
:1000E000FEE7FEE7FEE7FEE7DD0C0008C1000008C2
:1000F00030B50B46014600202022012409E00D46C0
:10010000D5409D4205D31D469540491B2546954047
:1001100040191546521E002DF1DC30BDD2B201E06F
:100120000270401C491EFBD270470022F6E710B552
:1001300013460A4604461946FFF7F0FF204610BD55
:10014000064C0125064E05E0E36807CC2B430C3C2A
:1001500098471034B442F7D3FFF7B6FF240E0008D7
:10016000440E000870B54379012B19D00125457163
:1001700002230371066834680A4B93409C430B6862
:1001800049680B4393402343336001680B68C024E4
:100190009440A3430B60057100214171084670BD76
:1001A000022070BDFE0F000070B5040004D020795D
:1001B0000025002802D005E0012070BD65712046B1
:1001C00000F008F802202071256101202071002034
:1001D00070BD000010B586B0044614216846FFF7D4
:1001E000A4FF0E492068884216D10D48816B420455
:1001F00011438163C16A01221143C162C06A694629
:1002000010400590102000900320019000200290E3
:100210000520000700F04AF806B010BD0074004049
:1002200000100240F0B54279012A1FD0012242712C
:100230000225057103681E6814468C4026431E6023
:10024000002901680B6813D096040C683340072717
:10025000FF043C40B34204D1BC4202D14B682B4363
:100260004B600271002141710846F0BD0220F0BDD3
:10027000042423400C6838252C40042BF1D1382C61
:10028000EFD14B681343EBE770B5044600F0DEF89E
:100290000546601C02D004480078241800F0D6F807
:1002A000401BA042FAD370BD00000020FCB5002323
:1002B0000124A7E027462A469F403A406FD04D6868
:1002C000012D05D0022D03D0112D01D0122D16D1F4
:1002D00085680326AC465D00AE46AE406546B54334
:1002E000AC46CE687546AE4065462E43866046688D
:1002F0000D79BE43ED06ED0F9D4035434560C66860
:100300005F000325BD40AE46AE4335468E68BE4015
:100310002E43C6604E68022E01D0122E14D1DE0884
:10032000B60036180196366A5D07B446EE0E0F2504
:10033000B54000966646AE43B4460D69009EB54092
:1003400066462E43019D2E6206687546AE430D79C2
:10035000AD07AD0FBD40354305604D68ED0050D58C
:100360002B4D6E6B26436E639E082A4DB6007519A1
:10037000AC46AD689E07360F0F27B740BD43052733
:100380003F07B84201D100271AE0234FB84201D1FC
:10039000012715E0214FB84202D1022710E030E0DA
:1003A0001F4FB84201D103270AE01E4FB84201D1C6
:1003B000042705E01C4FB84201D1052700E00627BD
:1003C000B7402F436546AF60184D2E684F6896437F
:1003D000FF0300D516432E606E684F689643BF0337
:1003E00000D516436E60AE684F689643FF0200D595
:1003F0001643AE60EE684F689643BF0200D51643C1
:10040000EE605B1C0A681546DA4000D052E7FCBD7E
:10041000001002400000014000040050000800509D
:10042000000C005000100050001C0050000401405F
:10043000426913460B401B0491430B438361704791
:10044000002A01D08161704781627047014880684D
:100450007047000000000020024881680278891877
:10046000816070470000002010B508480024016832
:10047000402211430160204600F00AF8002801D014
:10048000012401E000F026F8204610BD00200240C3
:1004900070B504460D4D7D202978C000FFF728FE79
:1004A00001460B480068FFF723FE00F061FB0028BF
:1004B00009D1042C07D200222146401E00F016F874
:1004C00000206C6070BD012070BD000000000020A5
:1004D0000C0000200448416B012211434163816BF1
:1004E00002041143816370470010024010B500F010
:1004F000A1FB10BDF8B50E4605007DD0534800683D
:10050000C007C00FB0420AD25048016849084900EC
:10051000314301600068C007C00FB04271D1287834
:100520004B4C800705D5E068F0218843A968084353
:10053000E0602878C00752D06868022817D00328E6
:1005400018D02168012818D08905002959DAE168F6
:10055000890889000143E160FFF778FF6968074671
:10056000022912D003291CD0012926D033E02168AA
:100570008903EAE721688901E7E74907E5E7FFF72B
:1005800065FFC11B3348814223D8E0680007800F14
:100590000228F4D123E0FFF759FFC11B2D48814207
:1005A00017D8E0680007800F0328F4D117E0FFF7A1
:1005B0004DFFC11B274881420BD8E0680007800F20
:1005C0000128F4D10BE0FFF741FFC11B2148814214
:1005D00001D90320F8BDE0680007800FF3D11B4864
:1005E0000168C907C90FB1420DD90168490849001E
:1005F00031430160006800E003E0C007C00FB04273
:1006000001D00120F8BD2878400706D5E068072111
:1006100009028843E9680843E0602878000707D5A5
:10062000E0680721C90288432969C9000843E060DE
:1006300000F016F8E168084A0906090F515CC84045
:10064000064908600020FFF723FFF8BD00200240A4
:100650000010024088130000080E00080C00002063
:1006600010B5184AD1680C20084004280BD008287F
:1006700010D00C2810D050680004410F0120C00396
:10068000491C884010BD1068C00601D50E4810BD39
:100690000E4810BD0E4810BD88020E4B000F185CAE
:1006A0000902D368890F491CDB0301D5084A05E01C
:1006B0001268D20601D5044A00E0044A5043FFF70D
:1006C00017FD10BD0010024000093D000024F40099
:1006D00000127A00180E0008FEB505007ED0F94C15
:1006E000E7680C20E66807400120000406402878EF
:1006F000C00747D0082F05D00C2F0AD101200004D5
:10070000864206D1206880033CD568680028E5D081
:1007100038E0012069680004814203D12168014367
:10072000216011E0052301221B04920499422168F3
:1007300002D111432160F1E781432160216801402A
:100740000091206890432060686800280DD0FFF772
:100750007DFE009005E0FFF779FE0099401A6428BD
:100760007ED820688003F6D50CE0FFF76FFE00907E
:1007700005E0FFF76BFE0099401A6428F0D8206866
:100780008003F6D4287880075CD5E868810604D514
:10079000226820210A43226088430923042F0DD0B8
:1007A0000C2F01D1002E09D000283BD0216899439D
:1007B00001432160FFF74AFE064627E0216849070A
:1007C00001D500288AD061681F22120291432A694C
:1007D0001202114361602168994300E0C3E10143C3
:1007E0002160FFF73DFFE16809060A0FB649895C01
:1007F000C840B64908600020FFF74AFE002873D1C0
:1008000020E0FFF723FE801B0228A9D820684007BC
:10081000F7D560681F210902884329690902084346
:1008200060600FE02068400840002060FFF70EFE87
:10083000064604E0FFF70AFE801B022890D82068D5
:100840004007F7D42878C00660D5002F0DD0E8699E
:1008500000284AD02068FF2101310843206000E0D1
:10086000E8E0FFF7F3FD06462CE02068800502D59E
:10087000E8690028A6D06068072149038843696AAF
:10088000084360606068298C0002000A090608437A
:100890006060686A410B0120C003491C8840E16820
:1008A00009060A0F8849895CC84088490860002009
:1008B000FFF7EEFD002817D128E0FFF7C7FD801BEA
:1008C0000228A2D820688005F7D56068072149036F
:1008D0008843696A084360606068298C0002000AE6
:1008E00009060843606011E023E12168FF20013020
:1008F00081432160FFF7AAFD064604E0FFF7A6FD4D
:10090000801B02289AD820688005F7D42878704E7A
:10091000000724D568690028306910D001210843F8
:100920003061FFF793FD009005E0FFF78FFD009920
:10093000401A02287ED830698007F6D50FE04008BB
:1009400040003061FFF782FD009005E0FFF77EFD7B
:100950000099401A02286DD830698007F6D42878AB
:10096000400764D500200290A06BC00006D4A06BA5
:10097000012109070843A06301200290554801683E
:10098000C90511D40168821511430160FFF75EFDAE
:10099000009005E0FFF75AFD0099401A642849D8F5
:1009A0004C480068C005F5D5FF20AA680130824296
:1009B00003D131690143316111E001218902002A2B
:1009C00007D005231B029A4203D132690A433261E0
:1009D000EFE7326982433261306988433061A86849
:1009E00000280ED0FFF732FD009006E0FFF72EFD45
:1009F0000099411A384881421CD830698005F5D5E4
:100A00000DE0FFF723FD009006E0FFF71FFD0099C2
:100A1000411A314881420DD830698005F5D40298D9
:100A2000002804D0A06B012109078843A06328781F
:100A3000800600E07CE02ED52848A96943140029EF
:100A400016D0A26801210A43A260626B0A43626366
:100A5000016A19430162FFF7F9FC064604E0FFF75B
:100A6000F5FC801B022863D8A0688007F7D512E048
:100A7000A16849084900A160016A99430162FFF732
:100A8000E5FC064604E0FFF7E1FC801B02284FD896
:100A9000A0688007F7D4A86A002866D00C2F4DD034
:100AA000012636060228206805D0B0432060FFF7F3
:100AB000CDFC05463EE0B0432060FFF7C7FC07468B
:100AC00013E0000000100240080E00080C00002097
:100AD00040100240007000408813000000000140F8
:100AE000FFF7B4FCC01B022822D820688001F7D48D
:100AF000296BE86AE2680843696BFD231B049A438B
:100B000011430843E060206830432060FFF79EFCFB
:100B1000054604E0FFF79AFC401B022808D820682D
:100B20008001F7D521E0FFF791FC401B022801D995
:100B30000320FEBD20688001F5D416E00128F8D01E
:100B4000E06801210904EA6A014091420BD10F21BA
:100B500089042A6B0140914205D10321890508408F
:100B6000696B884201D00120FEBD0020FEBD00005F
:100B7000094910B5401E884201D9012010BD074C1B
:100B800060610321081F00F055F80020A0610720D4
:100B90002061002010BD0000FFFFFF0000E000E02A
:100BA000FEE70000F0B587B014216846FFF7BDFAF4
:100BB0001B48C26A04210A43C262C26A0A40059203
:100BC000C16A01252943C162C16A29400591C26AEF
:100BD00002210A43C262C06A03240840114FA403E1
:100BE0000590002221463846FFF72AFC0E4E0022CF
:100BF00031460E48FFF724FC00940024019502942E
:100C0000694638460394FFF751FB0294694607484A
:100C1000009601950394FFF749FB07B0F0BD000073
:100C20000010024000080050148000000004005032
:100C3000704700008307FF22DB0E9A408907090EE8
:100C4000994000280BDA0007000F0838830808488D
:100C50009B001818C36993430B43C3617047830813
:100C600004489B001B18186890430843186070479D
:100C700000ED00E000E400E07047704710B5FFF7BA
:100C8000EBFB10BD30B593B038216846FFF74DFA45
:100C900014210EA8FFF749FA0F4801680322D20277
:100CA0009143C21489180160022000901020012590
:100CB0000024049003950A946846FFF70DFD0F2069
:100CC0000E901094119400210F9512940EA8FFF726
:100CD00011FC13B030BD00000070004010480168E6
:100CE000821511430160C1680E4A1140C16001685C
:100CF0000D4A11400160816849084900816001681E
:100D00000122920491430160C168FD2212049143C3
:100D1000C160002101610549C0038860704700007F
:100D2000001002400C40FF88F6FFF6FE00ED00E0E8
:100D300002E008C8121F08C1002AFAD170477047A4
:100D4000002001E001C1121F002AFBD17047000002
:100D50001CB5FFF789FBFFF795FFFFF723FF002482
:100D6000274900942548019408600846FFF71CFABB
:100D700000940022694622480194FFF7F3F900210C
:100D80001F48FFF74FFA1F4C012210212046FFF7A2
:100D900057FB6420FFF778FA002210212046FFF766
:100DA0004FFB1420FFF770FA012210212046FFF7B5
:100DB00047FB5020FFF768FA002210212046FFF77A
:100DC0003FFB1420FFF760FA012210212046FFF7B5
:100DD00037FB6420FFF758FA002210212046FFF766
:100DE0002FFB1420FFF750FA650129462046FFF734
:100DF0001FFB6420FFF748FAF7E70000007400408B
:100E0000100000200004005000000000000000005E
:100E10000102030406070809030406080C10182041
:100E200030000000440E0008000000201000000008
:100E3000300D0008540E00081000002018040000B7
:100E4000400D000801000000040000000000000048
:040E5000000020007E
:04000005080000C12E
:00000001FF
