:020000040800F2
:1000000058080020D5000008E92900081928000830
:1000100000000000000000000000000000000000E0
:10002000000000000000000000000000932A00080B
:100030000000000000000000312A0008952A000896
:10004000E7000008E7000008E7000008E7000008F4
:10005000E7000008E7000008E7000008E7000008E4
:10006000E7000008B10A0008C10A0008E70000081C
:10007000E7000008E7000008E7000008E7000008C4
:10008000E7000008E7000008652B000800000000FA
:10009000E7000008E7000008E7000008E7000008A4
:1000A000E7000008E7000008E700000875310008D5
:1000B000E7000008E700000800000000E700000873
:1000C0000348854600F004FC00480047FD36000860
:1000D000580800200448804704480047FEE7FEE730
:1000E000FEE7FEE7FEE7FEE7112B0008C10000086F
:1000F00030B50B46014600202022012409E00D46C0
:10010000D5409D4205D31D469540491B2546954047
:1001100040191546521E002DF1DC30BD70B500248B
:100120002546002801DA01244042002901DA012590
:100130004942FFF7DDFFAC4200D04042002C00D026
:10014000494270BDF0B51FB40646002082B0054696
:100150004024019100901BE0019922460F46304651
:1001600000F028FA049A059B801A994110D3104692
:100170001946224600F00EFA361A8F4101972246A0
:1001800001200021009F00F005FA38184D41009031
:100190002046641E0028DFDC019B00982946324679
:1001A00007B0F0BDD2B201E00270401C491EFBD284
:1001B00070470022F6E710B513460A460446194672
:1001C000FFF7F0FF204610BDF0B50746084658403F
:1001D00087B0C00F049048000E46590040084908F7
:1001E000BC1A884105D2384631461E4617460B4692
:1001F00002465800400810434CD0300D0390400593
:100200005900400D490D0590401A0290402872DABD
:1002100018030121000B090508430190049800927E
:10022000002805D001995242002088410092019097
:10023000029840210A1A0199009800F0ABF905468E
:100240000C466B4607CB00F0C6F9C0197141039A02
:100250000E0D0023D71756401A467A40164344D055
:10026000049A002A2DD0029A012A039A15DC12055D
:10027000C01A914101263605001C7141D20F059E1E
:10028000D2070093019202962A46234600F07CFA98
:1002900007B0F0BD38463146FAE71605224A0F4648
:1002A000B218C01AB74101210905001C4F410018BE
:1002B0007F41114618187941E20F10436D196441CE
:1002C00013E0E2076D0815436408C2071443039A5C
:1002D00001261205C01A91413605001C7141CE0756
:1002E000400830434908C01851412A46234600F0CF
:1002F0003EFACDE7FFE7049801224000C117121A29
:1003000000238B4104983146C417381AA141EEE707
:1003100030B40124E407634030BC55E730B4012415
:10032000E407614030BC4FE70000E0FFF0B51FB4C8
:1003300088B00B990998002448400999C00F4900DA
:1003400049080991C0070B990090490049080B9191
:1003500009990898A64608431CD00B990A980843A7
:1003600018D0099801244000420D4800410D099819
:1003700024050003000B204309900B980003000B99
:1003800020430B9050181C4940180022019014463D
:10039000104605E0002001460DB0F0BD032801DA4B
:1003A000034600E003239C46C11A0AAE0AE05F0040
:1003B00008ADED5B4F00F75B7D430027AA187C4139
:1003C000491C5B1E6145F2DD410004AB5A52210419
:1003D000120C0A43240C401C0828DFDB0198029011
:1003E0000099704601910090059B049A0799069820
:1003F00000F0CAF9D0E700000DFCFFFFF0B50C4695
:100400005C4085B0E40FE40703944C0000266408C8
:1004100059009446490802460296224321D062467A
:100420000A431ED06200570D4A000E032303550DE8
:10043000012402462C492405781B1B0B360B40185F
:1004400023432643614600901C46501AB44103D30F
:100450000098401C009002E0921800985B41002830
:1004600003DA0020014605B0F0BD00200121090596
:100470000746864611E064461D46141BB54106D367
:100480006546521BB341744607430C43A646CD074D
:1004900040084908284392185B4105460D43EAD1BC
:1004A0001046184313D06046194650407140084327
:1004B00006D06046101AB34106D20122002306E09E
:1004C00000220123DB0702E00122D24353100098EF
:1004D00074460105381C6141029C039D0019694165
:1004E00000F045F9BFE70000FD030000C217C10F8F
:1004F000504010B54018CA079623002100F086F836
:1005000010BDC20F410040020123400ADB05D207A3
:10051000090EC0187F2901DA00207047962903DCF4
:100520009623591AC84001E096398840002AF4D031
:1005300040427047C20FD207400040080BD0C10DA7
:100540000723DB01C91840020905400A1143C2080C
:10055000400711437047002001467047CB0FDB076F
:10056000490010B5490802460A4307D00A0D07247E
:100570000903E401090B121B002A01DC002010BD55
:10058000C900440F0C43C100E018D205801800F0E8
:1005900035F810BD10B5202A04DB0146203A914001
:1005A000002010BD914020239C1A0346E3401943CC
:1005B000904010BD10B5202A04DB0846203AD040F8
:1005C000002110BD0B46D340D0402024A21A9140F8
:1005D0000843194610BD10B5202A06DBCB17084684
:1005E000203A1041C1170B4306E00B461341D0409F
:1005F0002024A21A91400843194610BD002904DAAC
:10060000401C490001D140084000704770B40024EC
:10061000050C05D11024000402D1002921D0112499
:10062000050E01D100020834050F01D10001241D7F
:10063000850F01D18000A41C002801DB4000641C50
:10064000002908D020252E1B0D46F540A14000D0E2
:1006500001212943084301061B1B000ADB1D02D5AB
:10066000002070BC7047DB05181880180029F8DAE4
:10067000401C4900F5D170BC400840007047F8B5F7
:1006800002464A40D40F42004B0052085B089A428F
:1006900002D20246084611464A0023D0C30D4A0042
:1006A000DDB2120EAD1A202D35DA49020126490AB3
:1006B000F6058A19002C00D0524220214F1B11460A
:1006C000B9402A411018C20D9A4221D0002C17D0EF
:1006D000012D08DCDA05801AD20F8019D207DBB2AF
:1006E000FFF794FFF8BDDA05801A012340001B06CE
:1006F000C01880185A428018CA0F1043490007E0FA
:100700004908C2071143DA05801A80194008801889
:10071000FFF774FFF8BD61000122511A001BF7E7D3
:100720000122D2075140AAE70122D2075040A6E792
:1007300010B541000DD04100090E962909DC7E2933
:100740000ADC07DB410205D0C00F7F21C007C905C5
:10075000401810BD002010BD9622541A20210A1BFB
:1007600001469140E040FFF749FFA04010BD10B5A1
:10077000002B08DA0024401C614192185B411A43A7
:1007800001D14008400010BDF0B51FB482B005464D
:100790000C0003D0084602F00BFD02E002F008FD59
:1007A00020300246009021462846FFF7F3FE049BC6
:1007B000059A04460F4618431143084314D01846BF
:1007C00010431BD0009840210A1A18460599FFF7DC
:1007D000F1FE05460E46009A05990498FFF7DAFEE9
:1007E000084305D0012004E02046394607B0F0BD9B
:1007F0000020C11705430E432C43374300990E9840
:100800006305401A7905E40A00220C43FD0A0A3008
:1008100002D500200146E9E70105101969410C9C49
:100820000D9D00196941FFF7A2FFDFE770B54B008E
:100830005B0803430BD04B005C0D0026334665423A
:10084000B341D417AD1AA34102DB0020014670BDAD
:1008500012053018514170BD0EB5C217C10F50407E
:10086000CA0740180021054B0293019200910A46E5
:100870000B46FFF789FF03B000BD00003304000002
:1008800010B5002904DB0124E40740428C412146D5
:10089000002B04DB1C460123DB075242A3418B42A1
:1008A00000D1824210BD000010B5002904DB0124F4
:1008B000E40740428C412146002B04DB1C46012307
:1008C000DB075242A341994200D1904210BD000083
:1008D000064C0125064E05E0E36807CC2B430C3C93
:1008E00098471034B442F7D3FFF7EEFBA04400085A
:1008F000C0440008FEB500231A461B1A8A4103DBD8
:100900000020014603B0F0BD4A000D0301212D0B6C
:100910000905520D0D43D10702D100186D41521E39
:100920005110FF31FF310131002704463E46384661
:10093000009701910246012100200905FFF73AFEC8
:10094000C3197141F818324684468E464A416146C1
:100950002846611A904104D36046241A9541764690
:100960001F46241900986D41401C00903428E1DD99
:10097000F91930467041091BA84103D20022D24325
:10098000134601E00022134601980105381C71410D
:10099000FFF7EDFEB6E710B50146806A426D5023C1
:1009A0001A420AD1416D0122520211434165016888
:1009B000CA681205920F05D021E0C06C426B084650
:1009C000904710BD2022125C002A18D10A68120735
:1009D00015D58A6853070122002B09DB4B680C24CC
:1009E000A3434B60416D130299431143416506E0F7
:1009F000416D202319434165816D1143816500F0EC
:100A00001DF910BD10B5806A416D4022114341654A
:100A1000816D04221143816500F012F910BD10B5FB
:100A2000806A00F00CF910BD38B504460648054947
:100A30000068FFF75DFB604300E0401E0090002867
:100A4000FBD138BD40420F0040000020F8B50446FD
:100A5000006881688907890F012902D10168C907E7
:100A600022D18168114A10261140012500290ED19A
:100A70008168294381600120FFF7D6FF00F000FD67
:100A800007460CE000F0FCFCC01B0A2807D9606D8B
:100A900030436065A06D2843A0650120F8BD206843
:100AA0000068C043C007EDD10020F8BD17000080EA
:100AB00010B5024800F032FB10BD000038020020E3
:100AC00010B5024800F02AFB10BD00008002002093
:100AD00030B5446C1C252C400125A540046C656094
:100AE000046863608368102B036803D09960006812
:100AF000C26030BD9A600068C16030BD7047F8B513
:100B0000054604464035287C0026012808D00120EF
:100B10002874206881688907890F01290ED101E0B6
:100B20000220F8BD0168C90708D0606D2021084384
:100B300060650126002028743046F8BD616DFF22F3
:100B400001329143022211436165C1688907890F0F
:100B50000091C16889088900C16020688168920796
:100B60001143816000F08CFC07460EE000F088FC29
:100B7000C01B0A2809D9606D02218843102108434F
:100B80006065002028740120F8BD20688068002876
:100B9000ECDB2068C168009A1143C160606D800879
:100BA0008000401C6065C5E7F8B506460D46403636
:100BB000317C01290DD00121317401688A68520706
:100BC00009D5416D20221143416500203074012078
:100BD000F8BD0220F8BD174B6A68D80547109A4245
:100BE000154C8A6A2B6812D05B035B0B1A438A622E
:100BF0002968490305D5A1680143A1600A20FFF7D0
:100C000013FF2868800312D5A06838430EE05B0309
:100C10005B0B9A438A622968490302D5A168814324
:100C2000A1602868800302D5A068B843A0600020B6
:100C30003074F8BD01100000002701407047704774
:100C40007047000070B5040006D0606D2646002590
:100C50004036002802D006E0012070BDA56535743D
:100C6000204600F0D3F8606DC00603D42168886880
:100C7000400705D5606D1021084360653574EBE7CA
:100C8000606DFF2201329043022210436065886844
:100C90008207920F5B48012A02D10A68D2072BD142
:100CA000032362689B079A4205D05B429A4202D0B6
:100CB0005B009A4209D10A69920092080A61216890
:100CC0000A6963681A430A610CE00A699200920893
:100CD0000A6181680F229204914381608168626891
:100CE000114381602168CA6818239A43CA60216849
:100CF000CA68A3681A43CA608168012252069143F8
:100D000081608168A28E52061143816020688168EB
:100D1000C90004D481680122120711438160206850
:100D2000C168394A1140C1602069E168022825D0B4
:100D300000200143204620300278037B52035B00F1
:100D40001A431143226B1143A26992031143E269D2
:100D5000D20311432268D3681943D160616A0A46FD
:100D6000FF3AC23A05D0A26A11432268D3681943F8
:100D7000D16042780121012A02D00BE00420D8E79B
:100D80000078002823D0606D202210436065A06D9C
:100D90000843A065E06B012820681FD00169C907DE
:100DA00003D0016949084900016120684169C90807
:100DB000C900416120684169A26B11434161A56589
:100DC000606D80088000401C6065002070BD206858
:100DD000C26801231B041A43C260DBE70269FF23D8
:100DE0009B009A43026120680269236CA66C1A4337
:100DF000636C33431A430261206802690A4302614B
:100E0000D3E70000002701401902FEFF70B586B04D
:100E1000064614216846FFF7CCF91A493068884223
:100E20002ED11949486B4A1510434863C86A0122FC
:100E30001043C862C86A0025104005906F200090DA
:100E400003200190052069460295000700F048FA4A
:100E50000E480F4C21C4256080206560A0604000D2
:100E6000E060800020612020A56160610848083CA6
:100E700000F0A8F9002801D0FFF740FEF464A66254
:100E800006B070BD0024014000100240080002407E
:100E90003802002070B5044621680020896849079F
:100EA00021D425464035297C01291CD001212974F3
:100EB000E169012904D02046FFF7C8FD002811D1BF
:100EC000616D0A4A1140FF22013211436165002120
:100ED000A165297422681C21116021688A68042395
:100EE0001A438A6070BD022070BD0000FEF1FFFF52
:100EF000F7B5044600680025806840073DD42646C3
:100F00004036307C01280AD001273774E069012877
:100F100007D02046FFF79AFD050002D02EE0022000
:100F2000FEBD606D16490840FF2101310843606530
:100F30000020A0653074E16C1248C862E16C124870
:100F40000863E16C1148486321681C200860206830
:100F500041681022114341602068C1683943C16073
:100F60002168E06C4031029B019A00F073F920681F
:100F7000816804221143816000E002252846FEBDFD
:100F8000FEF1FFFF970900081F0A0008050A000884
:100F900070B54379012B19D00125457102230371E6
:100FA000066834680A4B93409C430B6849680B43BE
:100FB00093402343336001680B68C0249440A343EB
:100FC0000B60057100214171084670BD022070BDA3
:100FD000FE0F000070B5040004D020790025002821
:100FE00002D005E0012070BD6571204600F008F8D0
:100FF00002202071256101202071002070BD0000B9
:1010000010B586B0044614216846FFF7D2F80E49A1
:101010002068884216D10D48816B420411438163D8
:10102000C16A01221143C162C06A6946104005903D
:10103000102000900320019000200290052000075E
:1010400000F04EF906B010BD0074004000100240E0
:1010500018B50468009400688018002904D0143082
:1010600000900360002018BD0830F9E7F0B5427920
:10107000012A1FD0012242710225057103681E68F2
:1010800014468C4026431E60002901680B6813D06B
:1010900096040C6833400727FF043C40B34204D158
:1010A000BC4202D14B682B434B600271002141715D
:1010B0000846F0BD0220F0BD042423400C6838250A
:1010C0002C40042BF1D1382CEFD14B681343EBE7C4
:1010D00070B50024014620314A79022A03D0042148
:1010E000C163012418E0026813680E25AB43136046
:1010F000026813685B085B001360436C1C2213409A
:10110000012215469D40036C5D604A7100220A7100
:10111000816B002900D08847204670BDF0B4016C77
:101120000D6801680C68466C1C2304221E4017469B
:10113000B7402F420ED067070CD50C68A40602D426
:101140000C6894430C60416C19408A40016C4A6001
:10115000016B1AE00227B74002462F402032002FD1
:1011600017D0A70715D50C68A40605D40C680A2566
:10117000AC430C6001215171446C02211C40036C92
:10118000A140596000211171C16A002918D0F0BC3A
:1011900008470827B7402F4212D0240710D50C6803
:1011A0000E25AC430C60446C01211C400B46A3404F
:1011B000046C6360C163517100211171416BE4E7FC
:1011C000F0BC704770B504003CD01F48256814215E
:1011D0002818FEF78DFF800060641C4820640221FF
:1011E000204620300246417129681948E3680140D1
:1011F000A06866691843236933431843A3691843F9
:10120000E3691843236A1843084328600121A06852
:101210008903884210D00D488030836A656C1C2198
:101220000D400F26AE40B3438362656C63680D408A
:10123000816AAB400B4383620020E063012151715E
:10124000107170BD012070BDF8FFFDBF00000240AD
:101250000F80FFFFF8B504468C4620300179002549
:10126000012909D00126067141790027012905D0FD
:10127000077102252846F8BD0220F8BD0221417100
:10128000E76320680168490849000160614620461B
:10129000FFF71EFC206B00282068016801D00E2299
:1012A00005E0042291430160206801680A2211438D
:1012B00001602068016831430160DBE770B50446D6
:1012C00000F0DEF80546601C02D0044800782418BF
:1012D00000F0D6F8401BA042FAD370BD34000020C5
:1012E000FCB500230124A7E027462A469F403A4048
:1012F0006FD04D68012D05D0022D03D0112D01D0E6
:10130000122D16D185680326AC465D00AE46AE4070
:101310006546B543AC46CE687546AE4065462E433D
:10132000866046680D79BE43ED06ED0F9D4035435E
:101330004560C6685F000325BD40AE46AE433546F6
:101340008E68BE402E43C6604E68022E01D0122E1B
:1013500014D1DE08B60036180196366A5D07B44629
:10136000EE0E0F25B54000966646AE43B4460D69B5
:10137000009EB54066462E43019D2E620668754666
:10138000AE430D79AD07AD0FBD40354305604D68E7
:10139000ED0050D52B4D6E6B26436E639E082A4D93
:1013A000B6007519AC46AD689E07360F0F27B740DB
:1013B000BD4305273F07B84201D100271AE0234F5C
:1013C000B84201D1012715E0214FB84202D10227CE
:1013D00010E030E01F4FB84201D103270AE01E4F52
:1013E000B84201D1042705E01C4FB84201D10527BE
:1013F00000E00627B7402F436546AF60184D2E68C2
:101400004F689643FF0300D516432E606E684F6801
:101410009643BF0300D516436E60AE684F6896438F
:10142000FF0200D51643AE60EE684F689643BF02D8
:1014300000D51643EE605B1C0A681546DA4000D002
:1014400052E7FCBD001002400000014000040050C3
:1014500000080050000C005000100050001C00500C
:1014600000040140426913460B401B0491430B43A7
:1014700083617047002A01D08161704781627047A3
:1014800001488068704700003400002002488168ED
:1014900002788918816070473400002010B5084830
:1014A00000240168402211430160204600F00AF840
:1014B000002801D0012401E000F026F8204610BDEC
:1014C0000020024070B504460D4D7D202978C000F3
:1014D000FEF70EFE01460B480068FEF709FE00F01D
:1014E000FFFD002809D1042C07D200222146401E0E
:1014F00000F020F800206C6070BD012070BD00007D
:1015000034000020400000200448416B01221143B8
:101510004163816B020411438163704700100240F4
:10152000C106C90E012088400149086070470000CB
:1015300000E100E010B501F059FA10BDF8B504461D
:1015400000785E4D800672D55C4E0027403EB06B41
:10155000C00004D4B06BA9050843B0630127584804
:101560000168C90511D40168821511430160FFF7B4
:1015700087FF009005E0FFF783FF0099401A642879
:1015800037D84F480068C005F5D5326803210905F2
:1015900060680A400140914208D08103890F032905
:1015A00004D13168890301D50120F8BD2A690321DE
:1015B00009040A4022D0084090421FD020788006BB
:1015C0001CD528692A6988430121C9040A432A6174
:1015D0002A698A432A612861C0050FD5FFF750FFA9
:1015E000009008E0FFF74CFF0099411A354881420E
:1015F00001D90320F8BD28698005F3D56168880307
:10160000800F032805D132680005824301400A4358
:10161000326028690322616812041140084328617E
:10162000002F04D0B06B012109078843B0632078F4
:10163000C00705D0E868A168800880000843E8601A
:101640002078800705D5E8680C218843E1680843C5
:10165000E8602078400706D5E868032189028843BE
:1016600021690843E8602078000706D5E86803216F
:101670000903884361690843E8602088C00506D5EE
:10168000E868032109048843A1690843E8602078D9
:10169000400606D5E868012189068843216A084387
:1016A000E8602078000606D5E868032189048843AD
:1016B000E1690843E8600020F8BD000040100240E6
:1016C0000070004088130000F8B50E4605007DD07C
:1016D00053480068C007C00FB0420AD250480168A2
:1016E00049084900314301600068C007C00FB0429B
:1016F00071D128784B4C800705D5E068F0218843EC
:10170000A9680843E0602878C00752D068680228BA
:1017100017D0032818D02168012818D0890500297E
:1017200059DAE168890889000143E160FFF7A8FE02
:1017300069680746022912D003291CD0012926D046
:1017400033E021688903EAE721688901E7E749076F
:10175000E5E7FFF795FEC11B3348814223D8E068D7
:101760000007800F0228F4D123E0FFF789FEC11B98
:101770002D48814217D8E0680007800F0328F4D174
:1017800017E0FFF77DFEC11B274881420BD8E068B8
:101790000007800F0128F4D10BE0FFF771FEC11B99
:1017A0002148814201D90320F8BDE0680007800F7D
:1017B000F3D11B480168C907C90FB1420DD90168AF
:1017C0004908490031430160006800E003E0C007B8
:1017D000C00FB04201D00120F8BD2878400706D5DF
:1017E000E068072109028843E9680843E060287837
:1017F000000707D5E0680721C90288432969C900A5
:101800000843E06000F036F8E168084A0906090F6D
:10181000515CC840064908600020FFF753FEF8BD40
:10182000002002400010024088130000B04300086E
:1018300040000020044805490068C968044A490579
:10184000490F515CC8407047400000200010024022
:10185000C9430008044805490068C968044A890466
:10186000490F515CC8407047400000200010024002
:10187000C943000810B5184AD1680C200840042854
:101880000BD0082810D00C2810D050680004410F4D
:101890000120C003491C884010BD1068C00601D556
:1018A0000E4810BD0E4810BD0E4810BD88020E4BEC
:1018B000000F185C0902D368890F491CDB0301D5AE
:1018C000084A05E01268D20601D5044A00E0044A3D
:1018D0005043FEF70DFC10BD0010024000093D0012
:1018E0000024F40000127A00C0430008FEB5050091
:1018F0007ED0F94CE7680C20E66807400120000420
:1019000006402878C00747D0082F05D00C2F0AD1F1
:1019100001200004864206D1206880033CD5686817
:101920000028E5D038E0012069680004814203D135
:1019300021680143216011E0052301221B04920468
:101940009942216802D111432160F1E7814321606E
:101950002168014000912068904320606868002859
:101960000DD0FFF78DFD009005E0FFF789FD009990
:10197000401A64287ED820688003F6D50CE0FFF773
:101980007FFD009005E0FFF77BFD0099401A642879
:10199000F0D820688003F6D4287880075CD5E86802
:1019A000810604D5226820210A4322608843092346
:1019B000042F0DD00C2F01D1002E09D000283BD0D0
:1019C0002168994301432160FFF75AFD064627E04D
:1019D0002168490701D500288AD061681F221202B8
:1019E00091432A691202114361602168994300E022
:1019F000C3E101432160FFF73DFFE16809060A0FDB
:101A0000B649895CC840B64908600020FFF75AFD16
:101A1000002873D120E0FFF733FD801B0228A9D8EE
:101A200020684007F7D560681F21090288432969AB
:101A30000902084360600FE0206840084000206011
:101A4000FFF71EFD064604E0FFF71AFD801B022883
:101A500090D820684007F7D42878C00660D5002FBA
:101A60000DD0E86900284AD02068FF2101310843E1
:101A7000206000E0E8E0FFF703FD06462CE0206868
:101A8000800502D5E8690028A6D0606807214903CF
:101A90008843696A084360606068298C0002000A14
:101AA000090608436060686A410B0120C003491CB5
:101AB0008840E16809060A0F8849895CC84088495E
:101AC00008600020FFF7FEFC002817D128E0FFF790
:101AD000D7FC801B0228A2D820688005F7D5606853
:101AE000072149038843696A084360606068298C5C
:101AF0000002000A09060843606011E023E1216842
:101B0000FF20013081432160FFF7BAFC064604E064
:101B1000FFF7B6FC801B02289AD820688005F7D40E
:101B20002878704E000724D568690028306910D0E5
:101B3000012108433061FFF7A3FC009005E0FFF7A7
:101B40009FFC0099401A02287ED830698007F6D59C
:101B50000FE0400840003061FFF792FC009005E084
:101B6000FFF78EFC0099401A02286DD83069800773
:101B7000F6D42878400764D500200290A06BC000FE
:101B800006D4A06B012109070843A063012002903D
:101B900055480168C90511D40168821511430160D7
:101BA000FFF76EFC009005E0FFF76AFC0099401A11
:101BB000642849D84C480068C005F5D5FF20AA68BC
:101BC0000130824203D131690143316111E00121C9
:101BD0008902002A07D005231B029A4203D13269E9
:101BE0000A433261EFE732698243326130698843E8
:101BF0003061A86800280ED0FFF742FC009006E094
:101C0000FFF73EFC0099411A384881421CD83069E0
:101C10008005F5D50DE0FFF733FC009006E0FFF7F7
:101C20002FFC0099411A314881420DD83069800556
:101C3000F5D40298002804D0A06B0121090788433D
:101C4000A0632878800600E07CE02ED52848A969AA
:101C50004314002916D0A26801210A43A260626BD6
:101C60000A436263016A19430162FFF709FC0646F1
:101C700004E0FFF705FC801B022863D8A0688007FA
:101C8000F7D512E0A16849084900A160016A9943AB
:101C90000162FFF7F5FB064604E0FFF7F1FB801B4E
:101CA00002284FD8A0688007F7D4A86A002866D019
:101CB0000C2F4DD0012636060228206805D0B043EF
:101CC0002060FFF7DDFB05463EE0B0432060FFF7F4
:101CD000D7FB074613E0000000100240B0430008A5
:101CE00040000020401002400070004088130000B7
:101CF00000000140FFF7C4FBC01B022822D8206867
:101D00008001F7D4296BE86AE2680843696BFD2318
:101D10001B049A4311430843E0602068304320606D
:101D2000FFF7AEFB054604E0FFF7AAFB401B0228C5
:101D300008D820688001F7D521E0FFF7A1FB401B00
:101D4000022801D90320FEBD20688001F5D416E0E9
:101D50000128F8D0E06801210904EA6A01409142B3
:101D60000BD10F2189042A6B0140914205D1032137
:101D700089050840696B884201D00120FEBD002022
:101D8000FEBD10B500680B464068C021C943014044
:101D90000002000ECC04D870E40E5C708C06A40E19
:101DA0000904490F9C701970002A0AD100F041FE05
:101DB000D870587800F03DFE5870987800F039FEE1
:101DC0009870002010BD000030B50B460168896A8C
:101DD0005960016809694904490C99600068046800
:101DE0000F482146014088024D04800E18706D0E88
:101DF00049065D70490E99706102490E40242140E8
:101E0000D970002A0AD100F014FE1870587800F03A
:101E100010FE5870987800F00CFE9870002030BDCD
:101E20007F7F7F00F8B5040050D0254620356878C4
:101E3000002803D12870204600F052F80220687074
:101E40002168CA204862216853204862204600F079
:101E500004FEFF2604270028206802D046626F7027
:101E600034E081681D4A1140816021688868626899
:101E7000A369104322691A43104388602168E0680F
:101E800008612068016922891204114301612068F8
:101E9000C16880229143C1602068C16C89088900B3
:101EA000C164E169606901432068C26C1143C16487
:101EB0002068806880060BD4204600F0F7F80028E0
:101EC00006D0206846626F70002028700120F8BD9F
:101ED00020684662012068700020F8BDBFFF8FFFB8
:101EE00000680549884205D104480169012292042D
:101EF000114301617047000000280040401002407B
:101F0000F8B505460446203528780B4601280FD041
:101F10000120287002206870002A0BD0D8789E78A3
:101F2000000406435878097800024903084317E083
:101F30000220F8BD5878C10603D5EF2108400A30C9
:101F40005870D87800F07DFD0604587800F079FDCF
:101F500000020643987800F074FD064318784003A9
:101F600006432168CA2048622168532048622046FF
:101F700000F073FD0027002811D1114806402068A9
:101F800046602068C16880229143C16020688068F3
:101F900080060CD4204600F089F8002807D021687C
:101FA000FF204862042068702F700120F8BD21686E
:101FB000FF204862012068702F700020F8BD0000EB
:101FC0003FFFFF00F8B506460446203630780D4640
:101FD000012822D001203070022070702068002774
:101FE0008068002A1BD0400600D4EF702978A878BA
:101FF000090408436978EA78090212041143084386
:1020000000902168CA204862216853204862204617
:1020100000F023FD002837D116E00220F8BD40066D
:1020200000D4EF70287800F00CFD0304687800F00D
:1020300008FD00020343A87800F003FD0343E8789D
:10204000000403430093DCE7174900980840216827
:1020500008602068816801229204914381602969A7
:10206000E868084321688A68104388602068C1686E
:1020700080229143C1602068806880060CD420468D
:1020800000F014F8002807D02168FF2048620420DF
:10209000707037700120F8BD2168FF204862012070
:1020A000707037700020F8BD7F7F7F0070B50446E8
:1020B0000068C168A0229143C160FFF7E1F97D2665
:1020C0000546F60006E0FFF7DBF9401BB04201D9F8
:1020D000032070BD2068C0688006F4D5002070BD64
:1020E000094910B5401E884201D9012010BD074C96
:1020F00060610321081F00F079FC0020A061072027
:102100002061002010BD0000FFFFFF0000E000E0A4
:10211000F0B502462032137E012B15D00127177629
:102120000223537605686C68AB687026B4430E686A
:10213000496826438024A34319436E600068816088
:10214000577600201076F0BD0220F0BD70B5040077
:1021500005D025462035687E002802D006E0012003
:1021600070BD00202876204600F00AF8022068762C
:10217000211D206800F07AFD01206876002070BDE6
:1021800010B50068084988420CD10848816B2022AC
:1021900011438163002211461220FFF7CBF9122070
:1021A000FFF7BEF910BD000000140040001002400F
:1021B0000268D36801210B43D3600068826852072C
:1021C000520F062A02D002680A43026000207047BC
:1021D000704770B50446006801690025C943890746
:1021E000002915DBC168C943890711D4E91E0161C3
:1021F00001202076206880698007204602D0FFF702
:10220000E7FF04E000F078F8204600F076F8257645
:1022100020680169C943490717D4C168C943490700
:1022200013D40421C943016102202076206880690B
:102230008005800F204602D0FFF7CAFF04E000F0BF
:102240005BF8204600F059F8257620680169C943FB
:10225000090716D4C168C943090712D40821C94324
:102260000161042020762068C0698007204602D0E2
:10227000FFF7AEFF04E000F03FF8204600F03DF825
:10228000257620680169C943C90617D4C168C943C6
:10229000C90613D41021C9430161082020762068A3
:1022A000C0698005800F204602D0FFF791FF04E04F
:1022B00000F022F8204600F020F825762068016919
:1022C000C943C90708D1C168C943C90704D1891ED8
:1022D0000161204600F012F820680169C9434906EF
:1022E00009D4C168C943490605D44021C9430161E5
:1022F000204600F004F870BD704770477047704783
:1023000070477047F8B502680446D0691168936851
:1023100005072D0F5BD0DD07ED0FFF2621360E40A0
:102320002E4367D0C60706D0CE0504D50126166217
:10233000E26F3243E267870702220426002F06DAA3
:10234000DF0704D027683A62E76F3743E76747073C
:1023500006D5DB0704D023681E62E36F1343E367EF
:10236000020709D520220A402A4305D02368082203
:102370001A62E36F1343E367E26F002A2FD08006EF
:1023800006D5880604D5216E002901D0204688474D
:10239000E06F21688968490601D4000724D52046EA
:1023A00000F080FD20688168490619D581684022C7
:1023B00091438160E06E002812D020498163E06E75
:1023C000FEF786FE00280AD0E06E816B06E08506E7
:1023D00010D58D060ED5216E1CE020468847F8BD2D
:1023E0002046FFF78EFFF8BD2046FFF78AFF00204A
:1023F000E067F8BDC50208D55B0206D501200005DF
:1024000010622046FFF77CFFF8BD030605D50B06DA
:1024100003D5616E0029E0D1F8BD4006FCD5480621
:10242000FAD51368204640218B4313602021616751
:102430000021616600F0EFF9F8BD0000012E0008F0
:1024400010B5040003D0606F002802D007E001201F
:1024500010BD002170200155204600F027F82420EF
:10246000606720680168490849000160204600F063
:1024700031FD0128ECD0606A002802D0204600F02F
:1024800029FC206841680922D202914341602068FA
:1024900081682A22914381602068016801221143EA
:1024A0000160204600F07CFC10BD000070B586B0D5
:1024B000064614216846FDF77CFE2D4C3368002546
:1024C0002C4902200322A3422CD18B6B44042343CA
:1024D0008B63CB6A0343CB62C96A019001400591CB
:1024E00091020720009104900295039269462248C8
:1024F000FEF7F6FE224C21482060A5600520E5602D
:1025000060606561A561E5618020256220612046EB
:10251000FEF758FE002801D0FEF7F0FAF466A66236
:1025200006B070BD174CA342FAD14B6B0124A40333
:1025300023434B63CB6A01242343CB62C96A0190D6
:1025400021400591032104204902049000910520B7
:102550000295039269460007FEF7C2FE002211466B
:102560001B20FEF7E7FF1B20FEF7DAFFD8E700008D
:1025700000480040001002400004005030000240BB
:102580008002002000380140FFB50446806F85B00E
:1025900017460E46202875D1002E0AD0002F08D0ED
:1025A000A168C001814207D12069002804D1F00749
:1025B00002D0012009B0F0BD204660300290007CBE
:1025C00001285FD00298012101740020E0672220D9
:1025D000A067FEF755FF2546403504902F836F8393
:1025E0000121A0680903FF22884204D12369002B3E
:1025F0000CD1254A0AE07F23002809D001221207C6
:10260000904213D12269002A05D03F22AA8303E019
:102610002769002FFAD0AB83AA8B0192884202D19E
:102620002069002804D03746002602E00022EDE7AA
:102630000027D0B20390688B00281DD00898009026
:10264000002220212046049B00F062FD002801D0DA
:102650000320AFE72068002F406A07D003990840A5
:1026600038707F1C688B401E6883E4E7019908403E
:102670003080B61CF6E705E02020A0670299002014
:10268000087497E7022095E7FF010000F8B50446BB
:10269000806F20284DD100290BD0002A09D00123BA
:1026A000A0681B03984206D12069002803D1C807FF
:1026B00001D00120F8BD25466035287C012838D09E
:1026C000012028745820616502530026E667222005
:1026D000A067E06E002819D01749C162E16E174863
:1026E0000863E16E16484863E06E13468663676DC3
:1026F00021683A462431E06EFEF7ACFD002805D093
:102700001020E0672E7420206067D2E72E742068C6
:102710000168FF22013211430160206881680122B3
:10272000114381602068816840221143816000204C
:10273000F8BD0220F8BD00005D2E00089B2E0008A9
:10274000152E000870477047FFB50446406F83B0F0
:1027500017460D4620285CD1002D0AD0002F08D046
:10276000A168C001814207D12069002804D1E8078F
:1027700002D0012007B0F0BD204660300290007CFE
:10278000012846D00298012101740020E067212031
:102790006067FEF775FE26464036019037827782E5
:1027A0000120A1680003814202D12069002802D0E3
:1027B0002F46002511E000270FE00022802120464F
:1027C00000F0A6FC002815D1002F15D0216838781C
:1027D00088627F1C708A401E7082708A019B00286C
:1027E00006980090E9D100224021204600F090FC9C
:1027F000002808D00320BDE728882168C005C00D47
:102800008862AD1CE6E7202060670299002008740A
:10281000B0E70220AEE77047FEE700001CB50021DC
:1028200023480091214A01910260C1638160032223
:10283000012481639207046142600246C160203234
:102840001170FF235170C2334362816214730163BC
:102850008161042241634261C161FEF7F3F9200303
:102860000190694600941248FEF79EF911480090C5
:1028700069460F48FEF798F90F48009069460C48E2
:10288000FEF792F90D48009069460948FEF78CF969
:102890000B48009069460648FEF786F90948009003
:1028A00069460348FEF780F91CBD00000024014082
:1028B0005C00002002000004040000080800000C76
:1028C0002000001440000018F0B587B014216846BD
:1028D000FDF76FFC1B48C26A04210A43C262C26A48
:1028E0000A400592C16A01252943C162C16A294093
:1028F0000591C26A02210A43C262C06A03240840E9
:10290000114FA4030590002221463846FEF7B2FD80
:102910000E4E002231460E48FEF7ACFD0094002416
:1029200001950294694638460394FEF7D9FC029457
:1029300069460748009601950394FEF7D1FC07B05D
:10294000F0BD00000010024000080050148000009C
:102950000004005010B586B014216846FDF729FC2C
:10296000002413491348059412C07F21016084603C
:10297000C4600461FF21446141600838FFF752FAE6
:1029800068460470447084700394012269460948C3
:102990000494FFF717FB01216846017541758175A5
:1029A000C4750A4605A90348FFF7AAFA06B010BD88
:1029B00000280040CC01002010B50A4808490160F9
:1029C000E1214902416000218160C16001618161B2
:1029D000C1610C22016242614162FFF731FD10BD0D
:1029E000003801404C010020704700008307FF229F
:1029F000DB0E9A408907090E994000280BDA000780
:102A0000000F0838830808489B001818C3699343CF
:102A10000B43C3617047830804489B001B18186868
:102A2000904308431860704700ED00E000E400E0C8
:102A3000704701090A2200075143000F4018C0B235
:102A400070470022014602E00A39C9B2521C0A2925
:102A5000FAD21007000E0843704770B504460068AC
:102A6000C168490613D40021C943C160FEF708FDBF
:102A70007D260546F60006E0FEF702FD401BB0424B
:102A800001D9032070BD2068C0684006F4D500203D
:102A900070BD704710B5FEF7F9FC10BD30B59DB0A4
:102AA00038216846FDF785FB142117A8FDF781FB47
:102AB00024210EA8FDF77DFB144801680322D202F1
:102AC0009143C214891801600A200090012510204A
:102AD00000240595049003950A946846FEF706FFC6
:102AE0000F20179019941A94002118951B9417A879
:102AF000FEF7EAFD25200E9068040F9010941294C2
:102B00000EA8FEF71BFD1DB030BD00000070004098
:102B100010480168821511430160C1680E4A1140D6
:102B2000C16001680D4A114001608168490849008F
:102B3000816001680122920491430160C168FD2215
:102B400012049143C160002101610549C0038860FE
:102B500070470000001002400C40FF88F6FFF6FEB0
:102B600000ED00E0F8B53448FEF794F93348344AF4
:102B7000818833481932401A5043FDF7CFFAFDF7E8
:102B8000B5FC304C2061FDF7D5FC00F00DFC0022B7
:102B90002D4B00F08DFE05460E46E068FDF7CAFCA1
:102BA00000222A4BFDF72AFC2A463346FDF7BEFBDE
:102BB000074600912069FDF7BDFC00F0F5FB0546D6
:102BC0000E46A068FDF7B6FC0022214BFDF716FC6F
:102BD0002A463346FDF7AAFB05460E466068FDF718
:102BE000A9FC00221B4BFDF709FC2A463346FDF7E2
:102BF000EBFA3A46009BFDF7E7FA02460B46002047
:102C00001549FDF7FBFBFDF7A9FC6061FDF792FCA0
:102C1000124A134BFDF77CFB0022124BFDF786FB9B
:102C2000FDF79CFC01F042FBFDF76BFCA0610E4838
:102C3000FFF7CFFAF8BD00005C0000202C02002056
:102C4000FF0F00001800002000000840D012634170
:102C50000088C34000408F400000F03F33333333DF
:102C6000331F714000002440F0010020F0B50268DD
:102C70000124A407144D154E154FA04205D0A842BB
:102C800003D0B04201D0B84204D11346702293431E
:102C90004A681A43A04205D0A84203D0B04201D0EE
:102CA000B84204D103231B029A43CB681A43802302
:102CB0009A430B691A4302608A68C262096881629A
:102CC00001214161F0BD0000000400400008014006
:102CD0000014014010B5818CC90707D001684A680B
:102CE00001235B049A43836A1A434A60818C8907F3
:102CF00007D501684A6801231B049A43C36A1A4333
:102D00004A60818C490707D501684A6801239B0402
:102D10009A43036B1A434A60818C090707D50168FF
:102D20004A680123DB039A43436B1A434A60818C50
:102D3000C90607D50268916801231B039943836B79
:102D400019439160818C890607D501688A6801233F
:102D50005B039A43C36B1A438A60818C490612D580
:102D600003685A6801210905046C8A4322435A60AA
:102D7000026C8A4207D10268516803235B059943BC
:102D8000436C19435160818C090607D501684A6874
:102D90000123DB04806C9A4302434A6010BD0000AB
:102DA000F8B500260446C667FEF76AFB05462068AC
:102DB0000068124F000709D501212B460022490562
:102DC0002046009700F0A4F900280DD12068006883
:102DD00040070BD501212B4600228905204600978C
:102DE00000F096F9002801D00320F8BD202060678C
:102DF000A067603426740020F8BD0000FFFFFF01CB
:102E000010B5806A0022014640314A834A82FFF7AA
:102E100078FA10BD70B5846A606FA56F2168896803
:102E200000260906002906DA212804D1522006537B
:102E3000204600F047F820688068400606D5222D1D
:102E400004D15A200653204600F02CF8E06F1021E0
:102E50000843E0672046FFF754FA70BD10B50146FD
:102E60000968806A0968890614D400225A210A5226
:102E700001680A68FF2301339A430A6001688A687F
:102E8000520852008A6001688A6840239A438A6027
:102E900020218167FFF756FC10BD10B5806AFFF74F
:102EA00052FC10BD01680A68FF2321339A430A606F
:102EB00001688A68520852008A60202181670021D7
:102EC0000166704701680A68C0239A430A6020219E
:102ED00041677047F8B504462669A268E76932433E
:102EE0006669102000253E43236832437B491E68F3
:102EF0007B4F3E4016431E6022685368032636030C
:102F0000B343E668334353602368A2698B4201D020
:102F1000266A32439E680B273F02BE4316439E60DB
:102F2000704E2368704AB3420CD1D2689207920F58
:102F300006D0012A3ED0022A3AD0032A26D124E024
:102F4000012023E0694EB3420AD1D2680C263240F8
:102F50002CD0042A2ED0082A2AD00C2A16D114E00C
:102F6000634EB34222D0634EB3421FD08B420DD189
:102F7000D66803229202164018D001229202B61A95
:102F800018D0B61A14D0964200D10820564A01260D
:102F9000403A594FF6038B4236D100280CD0022814
:102FA0000DD0042812D008281FD11CE00020EDE726
:102FB0000220EBE70420E9E7FEF73CFC08E010689C
:102FC000C00601D5384605E04C4803E0FEF752FC48
:102FD000002873D0626851005118814205D811034E
:102FE000814202D303E03046F4E7012566E0010E9A
:102FF00006025008002330185941FDF7A3F80321B9
:103000000902411A3E4A55E0E169B14232D103005A
:1030100000F0E5F809070A0D06250606062B06004E
:10302000E3E7FEF707FC1CE0FEF714FC19E010686C
:103030006168C00602D54808324A01E0324A4808B1
:103040008018FDF755F880B20146304A1039914298
:10305000CBD8511C01400007400F08432CE0FEF77D
:1030600009FC616840004A08EAE7616801224808F3
:103070001204E5E7030000F0B2F809070A0D06267E
:103080000606062C0600B0E7FEF7D4FB1DE0FEF7AF
:10309000E1FB1AE010686168C00602D54808C01953
:1030A00002E016484A081018FDF722F880B20146DF
:1030B000164A1039914298D82168C86000202066CD
:1030C00060662846F8BDFEF7D5FB61684A0880189F
:1030D000EAE7616848088019E6E700000048004018
:1030E000F369FFEF00380140401002400044004007
:1030F000004C00400050004000093D000024F40056
:10310000FFFC0F0000127A000048E801EFFF00000A
:10311000FFB581B017460E4604460A9D09E0681CBB
:1031200007D0FEF7ADF90499401AA8420CD8002D3B
:103130000AD02068C1693046884318D00020B842C0
:10314000EDD0002005B0F0BD20680168FF22A1325B
:10315000914301602068816849084900816020200E
:103160006067A0670020603420740320EAE7012034
:10317000E5E7000010B5642301220A490A48FFF779
:1031800003FA0948FFF7BEF806480278811E0A2AAA
:1031900002D14878401C4870044B08781A54401CEF
:1031A000087010BD1A0000204C010020C802002049
:1031B0002021020C01D010211046020A01D0104635
:1031C0000839020901D01046091F820801D01046B3
:1031D000891E420801D0881E7047081A704730B413
:1031E0007446641E2578641CAB4200D21D46635DA4
:1031F0005B00E31830BC18474900CA0202431000C4
:1032000000D004204A0D01D001221043044A490D88
:10321000914201D102210843012800D105207047C5
:10322000FF070000F8B504464F1EC80008382118F3
:1032300015461E46086849683A4606239A4310D048
:103240002A463346FDF772F83A46D200083AA318E8
:103250001A687F1E5B68FCF7B7FF06223B46934364
:10326000EED1022F23D0042F11D0062F2FD12A46C2
:103270003346FDF75BF8E36AA26AFCF7A5FF2A462E
:103280003346FDF753F8636A226AFCF79DFF2A462E
:103290003346FDF74BF8E369A269FCF795FF2A4630
:1032A0003346FDF743F863692269FCF78DFF2A4630
:1032B0003346FDF73BF8E368A268FCF785FF2A4632
:1032C0003346FDF733F863682268FCF77DFFF8BDED
:1032D000002210B5134610460149FDF78FF810BDC6
:1032E0000000F03F10B50122FDF7A0FA10BD10B5A7
:1032F000FCF76AFF10BD002210B5134610461146B8
:10330000FDF77CF810BD000010B50721024A00202F
:103310000907FDF78BFA10BD01030000034A10B541
:1033200000201107FDF782FA10BD000001FDFFFF2C
:1033300002E008C8121F08C1002AFAD1704770477E
:10334000002001E001C1121F002AFBD170470000DC
:1033500001490860704700004400002010B505498D
:103360006423487109220448FFF7EEF90520FDF7B0
:10337000A5FF10BD0C000020CC0000201CB507A14B
:1033800003C9019100906423062269460548FFF7AE
:10339000DBF90A20FDF792FF1CBD000041544530C7
:1033A0000D0A00004C010020F0B5C54A00248FB082
:1033B00091420ADA4B005B08934206D801254A0085
:1033C0006D05EA4205D1002803D0FFF78BFF0FB04F
:1033D000F0BD01252D05A94219DA034308D00029C3
:1033E00010DA0120FFF7B4FFFFF785FF0FB0F0BD43
:1033F0000220FFF7ADFFFFF76BFF0122D20751401C
:103400000FB0F0BD3524E4433622FDF70FFA0A155C
:10341000AC4B1219D4180A03120BAB49AB4B56181C
:103420002E403146594011430192321512190B9228
:103430000022FCF76DFF019A0446921C1003A44E73
:10344000000B0D467E44032860D220467368326824
:10345000FDF716FA1CD10B98002815D0FDF7FCF9E2
:1034600004460E469B4A9C4BFCF760FF0D46074600
:103470009A4A9B4B20463146FCF758FF3A462B466A
:10348000FCF7A2FE0FB0F0BD716830680FB0F0BD60
:10349000944A954B20462946FCF748FF0022934B5F
:1034A000FCF73CFF06460F4622462B4610461946BF
:1034B000FCF73CFF32463B46FCF738FF06460B98CC
:1034C0000F4600281DD0FDF7C7F9824A824B0591AF
:1034D0000490FCF72BFF32463B46FCF71FFF2246C9
:1034E0002B46FCF715FF04460D467C4A7C4B05999C
:1034F0000498FCF71BFF22462B46FCF709FF0FB090
:10350000F0BD0B46324620462946C4E00123002286
:103510009B072046FCF758FE02460B4620462946EC
:10352000FCF76CFF06460F460B98FDF795F93246FF
:103530003B460591049010461946FCF7F7FE0991A9
:103540000C906B490198099B421800920C9A1946FD
:103550001046FCF7EBFE024607910A906549019878
:103560000B1A6548019303217844079BFFF75AFE25
:10357000079B0A9AFCF7DAFE0E905F480D91042132
:103580007844079B0A9AFFF74DFE099B0C9AFCF7BB
:10359000CDFE019B009A1A4300920D9B0E9AFCF7F8
:1035A00013FE009A01910C90002A4DDD0022D243B7
:1035B00020462946FDF73AF922462B46FCF7B6FE8F
:1035C00000910A900B9800282BD0424A424B059953
:1035D0000498FCF7ABFE07910E90019B0C9A0099A2
:1035E0000A98FCF7F1FD32463B46FCF79FFE079B2D
:1035F0000E9AFCF7E9FD009B0A9AFCF78FFE224623
:103600002B46FCF785FE04460D46344A344B05999B
:103610000498FCF78BFE22462B46FCF779FE0FB090
:10362000F0BD019B0C9A0A98FCF7CEFD32463B4652
:10363000FCF77CFE009B0A9AFCF770FE22462B46A4
:10364000FCF76CFE0FB0F0BD0B98002827D0214A84
:10365000214B05990498FCF769FE079100902046DC
:103660002946019B0C9AFCF753FE32463B46FCF779
:103670005DFE079B009AFCF74BFE22462B46FCF7AB
:1036800047FE04460D46154A154B05990498FCF76C
:103690004DFE22462B46FCF73BFE0FB0F0BD0B461D
:1036A000204629460C9AFCF733FE32463B46FCF78F
:1036B0003DFE22462B46FCF731FE0FB0F0BD000068
:1036C0000000F07F01FCFFFF645F09000000F03F95
:1036D00050100000763C7935EF39EA3D0000E0FEFD
:1036E000422EE63F555555555555D53F0000E03F14
:1036F00086EBF9FF51B806006C0E00001CB5FDF713
:10370000CDFEFFF7CBF97D200001FDF7D7FDFFF7D8
:10371000DBF85C48016B012211430163006B104030
:103720000022009011460920FDF704FF0920FDF753
:10373000F7FE002211460A20FDF7FCFE0A20FDF7E5
:10374000EFFE0024514900944F4801940860084658
:10375000FDF740FC0094002269464C480194FDF7B7
:1037600017FCFFF75BF84948494914300160846051
:103770004B21C460C90104614160846104620C2171
:1037800044624161FEF75CFEFFF716F9FFF7E2F8CD
:10379000414800943F490194016040498460416080
:1037A0003F494461C160FEF7D1FC009469463A4844
:1037B0000194FEF7ADFC3548943000680168202282
:1037C00011430160314800215C38FDF798F9002869
:1037D000F8D131492D4806223C315C38FDF788FB91
:1037E00000212A48FDF742FC00231A4619462748C3
:1037F000FDF72EFCFFF7C2FD3120FFF7AFFD264895
:10380000FEF7D6FC274E284F751C00F0ADFD25496C
:103810001E480122491C1430FEF738FF287830700A
:103820000028F2D0052829D008DC012818D0022869
:1038300018D003281ED004281AD11DE045280BD02B
:10384000462804D0532813D10121890306E004211E
:103850001648FDF707FE0BE00121C9033846F8E7DB
:10386000002300E05023002211460848FDF7F0FB3A
:103870002C70CAE7A023F6E7F023F4E7FF232D33EB
:10388000F1E700000010024000740040B800002082
:103890000048004000140040F00100209F0F00008D
:1038A0001F4E0000000000200008005000040050DF
:1038B000F0B51FB496B084460C460246199D189880
:1038C0000390490068006300490840080193002AFA
:1038D00001D0012600E000269E19FE4BF6185B1071
:1038E0009E422BD36E00039F0296002F00D001272B
:1038F000F719F84EF84BBE199E421FD3039E03469C
:10390000F64F334309D03B469C4201D1002A04D0F4
:10391000019B002A05D0012604E0002039461BB097
:10392000F0BD00269E19EE4B9E4207D8039F029ED3
:10393000002F00D00127F6199E4207D92B4660467A
:103940002146189AFFF7D3FC1BB0F0BD0023002CD2
:1039500029DAE44EB04226DAE34EB04201DB02231C
:1039600021E0DE4EB0421EDBE04E070DBE19142EE4
:1039700009DD3427BF1B039EFE400196BE40039F16
:10398000BE420BD00FE0039F002F0CD11427BF1BAA
:103990000646FE400196BE40864204D1019BDE07EA
:1039A000F60F02239B1B0E46164318D1002D16DA84
:1039B000002C03D0022B01D0012B06D00220FFF7F0
:1039C000C7FCFFF785FC1BB0F0BD0220FFF7C0FC71
:1039D000FFF77EFC0122D20751401BB0F0BD039ED1
:1039E000002E61D1BF4EB04220D1C148844201D1E6
:1039F000002A08D0B948814209DB002D10DB189855
:103A000029461BB0F0BD0020B4491BB0F0BD002D0D
:103A100006DA01222946D207189851401BB0F0BDA2
:103A2000B4497944086849681BB0F0BDAB4FB8424F
:103A300025D1002D1FDA002904D0B14212D1002A6D
:103A400009D018E0002A72D1A649E20F0020D2075F
:103A500011431BB0F0BD0020E20F0146D207114315
:103A60001BB0F0BDB14206DA234600203946FCF710
:103A7000C5FC1BB0F0BD104621461BB0F0BDB142E5
:103A800012DA0126B607B54203D12346104619467D
:103A9000FEE3994EB54207D1261E05DB104631469E
:103AA00000F03EFC1BB0F0BD67007F081646002A00
:103AB00040D100290AD08B4A914229D1002C0EDD39
:103AC000002D1CDB002011461BB0F0BD022B16D0D0
:103AD000002C14D0012B12D1002C14DB0FE0002C91
:103AE00028DA002D09DB012B03D000207D491BB013
:103AF000F0BD002081491BB0F0BD012B03D0002098
:103B000001461BB0F0BD00200121C9071BB0F0BD6C
:103B1000724A91420ED1002C01DA002B17D0022BF1
:103B200006D00020C043FCF797FE1BB0F0BD90E22A
:103B30000120F8E7E217521C94461A4307D00022EE
:103B40000892664C62465B1E1A4307D009E00120CA
:103B5000FFF7FEFBFFF7CFFB1BB0F0BD0022644C6C
:103B60000892674A90427DDD664B674A98421FDDA6
:103B7000914202DC002D05DB4DE05848814217DB05
:103B8000002D48DD0220FFF7E3FBFFF7BDFB0546F4
:103B90000E460022534B21460898FCF7C7FB084607
:103BA00071004908C00FC007014328461BB0F0BD93
:103BB000914215DA002D2EDA0220FFF7C9FBFFF73C
:103BC000A3FB05460E460022464B21460898FCF70B
:103BD000ADFB72005208C80FC0070243114617E040
:103BE0003E4B994223DD002D15DD0220FFF7B0FB8F
:103BF000FFF78AFB05460E4600223A4B21460898FD
:103C0000FCF794FB084671004908C00FC007014348
:103C100028461BB0F0BD0220FFF79AFBFFF77EFBA2
:103C200049004908E20FD20711431BB0F0BD002242
:103C300030463946FCF76CFB012205460E46D2435E
:103C4000FCF7F4FD314A324BFCF768FB2A46334659
:103C5000FCF76CFB0022284BFCF760FB07462A466A
:103C6000334600E064E0039110461946FCF75EFB22
:103C70003A46039BFCF75AFB074603220991520779
:103C8000244B28463146FCF751FB07910C90224A01
:103C9000204B38460999FCF749FB074601911F4A1A
:103CA0001F4B28463146FCF741FB3A46019BFCF787
:103CB0002FFB07460B460246099107990C98FCF723
:103CC00083FA00250E462846079B0C9AFCF720FB3A
:103CD0003A4627E0FFFF1F00FFFF0F000000F03F04
:103CE0000000E0FF0000F07F0000404301FCFFFF08
:103CF0000000F0BF720A00000000E03F0000F0FF8B
:103D00000000E0410000F043FFFFEF3F55555555DF
:103D10005555D53F4715F73FFE822B6544DF5DF8CB
:103D20000BAE543E099BFCF7F9FA02460B4652E1F2
:103D3000012500202D05A94207DA352230463946F3
:103D4000FCF774FD06463420C0430A151218FE48DD
:103D5000101803900803FD49000B01430F46FC496E
:103D6000884201DC002003E0FA49884202DA01209F
:103D7000119005E0002011900398401C7F1B0390D8
:103D800011980597C200F4480F9278448018436850
:103D90000268394630460D930292FCF7B9FA079152
:103DA0000C9030460D9B029A0599FCF70DFA0246DD
:103DB0000B460020E549FCF721FB09910490079B85
:103DC0000C9AFCF7B3FA129000201090E3480D46CD
:103DD000784400680E900121781049070843119932
:103DE0000D9B890440180121C90447183946029ADD
:103DF0000E98FCF78DFA3246059BFCF78FFA0246C7
:103E00000B4629461098FCF791FA064602913B466C
:103E100029460E9A1098FCF789FA079B0C9AFCF732
:103E20007DFA3246029BFCF773FA099B049AFCF771
:103E30007DFA0591129A0A902B4610461946FCF716
:103E400075FA06460246C6480F460B4606217844D8
:103E5000FFF7E8F932463B460091049010461946B8
:103E6000FCF764FA009B049AFCF760FA06460F46DA
:103E70002B461946129A1098FCF7A6F9059B0A9A48
:103E8000FCF754FA32463B46FCF79EF9109A07912C
:103E900004902B4610461946FCF748FAB14E002212
:103EA000334609910290FCF78FF9079B049AFCF7BF
:103EB0008BF900200746024633460091FCF728FAAA
:103EC000099B029AFCF724FA079B049AFCF726FA4E
:103ED00006460D913A462946009B1098FCF726FAB3
:103EE00007910C902B463046129A0D99FCF71EFA5A
:103EF00005460E463A46009B05990A98FCF716FAC5
:103F000033462A46FCF760F902460B4607460991FC
:103F100007990C98FCF758F900250E462846079B90
:103F20000C9AFCF7F5F93A46099BFCF7F7F90746B6
:103F30000722099152078C4B31462846FCF7F6F9C7
:103F400007910090894A884B38460999FCF7EEF9A9
:103F500007460191864A874B31462846FCF7E6F929
:103F60003A46019BFCF730F9834B7B440F9A9B1830
:103F70001A685B68FCF728F9029009910398FCF72E
:103F80006BFC05910490099B029A07990098FCF735
:103F90001BF97A4B7B440F9A9B181A685B6817468B
:103FA0000393FCF711F9059B049AFCF70DF90E46F3
:103FB0002846059B049AFCF7ABF93A46039BFCF7AD
:103FC000A7F9079B009AFCF7A3F9099B029AFCF753
:103FD000A5F902460B46199900200C900F46189837
:103FE000FCF7A4F9029104903B460C9A1999189891
:103FF000FCF78EF92A463346FCF798F9029B049A9F
:10400000FCF7E2F809910E902A46334639460C989F
:10401000FCF78CF906460F46099B0E9AFCF7D4F87C
:10402000574A0D46914220DB5242AA18024310D152
:1040300032463B46FCF76CF904900391514A524BCF
:1040400009990E98FCF7C0F8039B049AFCF72CFC26
:104050001ED20220FFF77CF9FFF756F94900490804
:10406000E20FD20711431BB0F0BD6A00474B520864
:104070009A420DD3464AAA18024300D0CBE53246F5
:104080003B46FCF745F9099B0E9AFCF70DFCF5D968
:104090006800002340082C490393020D3D4B521841
:1040A000984223DD01200005521CD04042195000E7
:1040B000400D401838497944096813468C46374901
:1040C000C1408B4312030121120B09055118142220
:1040D000101AC1400391002D01DA48420390624654
:1040E00030463946FCF714F906460F4632463B4641
:1040F00009990E98FCF768F800252A46284B2846AF
:104100000591FCF713F907910C90264A264B284697
:104110000599FCF70BF90091029032463B46284680
:104120000599FCF7F5F8099B0E9AFCF7F7F81F4A7A
:104130001F4BFCF7FBF8009B029AFCF745F807467B
:104140000B460246099135E001FCFFFF0000F03FFD
:104150008E9803007AB60B0082060000C4060000A9
:10416000EE0500000000084009C7EE3FFD033ADC01
:10417000F5015B14E02F3EBEC2040000880400007D
:1041800000009040FE822B654715973C00CC904084
:1041900000346F3F0000E03FDE030000FFFF0F0030
:1041A000432EE63F396CA80C615C20BEEF39FAFE65
:1041B000422EE63F07990C98FCF706F805460E4696
:1041C000079B0C9AFCF7A4F83A46099BFCF7A6F863
:1041D00009912A4633460E9010461946FCF7A6F878
:1041E000074602462F480B46059105217844FFF704
:1041F00019F83A46059BFCF799F82A463346FCF72E
:104200008DF80746019128463146099B0E9AFCF726
:104210008DF8099B0E9AFBF7D7FF012304910C90B0
:1042200000229B0738460199FCF772F805910E9021
:104230003A4628463146019BFCF778F8059B0E9AD2
:10424000FCF7DCF8049B0C9AFCF762F82A4633462C
:10425000FCF75EF80022144BFCF760F80646039862
:104260000D46000541190915002912DC3046294682
:10427000039AFCF7DBFAFEF7BFFF042801D1FFF732
:104280004DF830462946039AFCF7D0FA064601E07D
:1042900004E029180B46324621460898FCF746F8F8
:1042A0001BB0F0BD800200000000F03F70B5054675
:1042B000FCF73EFA044601462846FCF731FA7F2611
:1042C0003F22BF23FF21F60512061B060906002D1B
:1042D0000CDA984202D343008B420CD9904219DD8C
:1042E0004000884211D915E0044613E0984207D9EE
:1042F00043008B4204D831462046FCF711FAF3E71D
:10430000904207DB4000884204D831462046FCF743
:10431000B6F9E9E760004008E90FC907084370BD36
:10432000F8B506460C46FCF7E5FA051E0F4600D028
:104330000120014349000B484908411AC90F0DD01B
:10434000002E01D0012100E000210C43610049084A
:10435000401AC00F02D10120FEF7FAFF2846394665
:10436000F8BD00000000F07F10B500220D490E4896
:10437000FDF72AFD00220D490B48FDF702FD094813
:104380000A490278891F0A7042784A7080788870DA
:10439000881D8278C11E0A7042784A70C078887081
:1043A00010BD000048000020CC01002008000020C3
:1043B00000000000000000000102030406070809D5
:1043C000030406080C10182030000000000102034E
:1043D000040000000000000004FA97999999D93F61
:1043E000AF788E1DC571CC3F9FC678D0099AC33F68
:1043F000935555555555E53F599322942449D23F3D
:10440000DE03CB966446C73F44523EDF12F1C23F03
:10441000000000000000F03F000000000000F83F36
:1044200000000000000000000000004003B8E23F70
:10443000000000000000000006D0CF43EBFD4C3E22
:10444000033333333333E33FFFAB6FDBB66DDB3F17
:104450004D268F515555D53F01411DA96074D13F5F
:1044600065DBC9934A86CD3FEF4E454A287ECA3F59
:104470003E5555555555C53F93BDBE166CC166BFDB
:104480002CDE25AF6A56113FF16BD2C541BDBBBED4
:10449000D0A4BE726937663E000000000000000034
:1044A000C04400080000002048000000303300082D
:1044B00008450008480000201008000040330008AC
:1044C000000000000000000000000000706167654F
:1044D0002078FFFFFF000000000000003D479B3FE9
:1044E0000D961640ADE2673F00000000000000009E
:1044F00000000000010000000400000000000000B7
:08450000000020000000000093
:04000005080000C12E
:00000001FF
