:020000040800F2
:1000000070080020D5000008211C0008511A0008C3
:1000100000000000000000000000000000000000E0
:10002000000000000000000000000000BB1C0008F1
:100030000000000000000000691C0008BD1C000852
:10004000E7000008E7000008E7000008E7000008F4
:10005000E7000008E7000008E7000008E7000008E4
:10006000E70000082D0200083D0200084D020008CC
:10007000E7000008E7000008E7000008E7000008C4
:10008000E7000008E70000088D1D000800000000E0
:10009000E7000008E7000008E7000008E7000008A4
:1000A000E7000008E7000008E7000008E700000894
:1000B000E7000008E700000800000000E700000873
:1000C0000348854600F08EF800480047C922000822
:1000D000700800200448804704480047FEE7FEE718
:1000E000FEE7FEE7FEE7FEE7391D0008C100000855
:1000F00030B50B46014600202022012409E00D46C0
:10010000D5409D4205D31D469540491B2546954047
:1001100040191546521E002DF1DC30BDF0B51FB45C
:100120000646002082B005464024019100901BE065
:10013000019922460F46304600F042F8049A059B8A
:10014000801A994110D310461946224600F028F82B
:10015000361A8F410197224601200021009F00F0AE
:100160001FF838184D4100902046641E0028DFDC3F
:10017000019B00982946324607B0F0BDD2B201E09B
:100180000270401C491EFBD270470022F6E710B5F2
:1001900013460A4604461946FFF7F0FF204610BDF5
:1001A00010B5202A04DB0146203A9140002010BD02
:1001B000914020239C1A0346E3401943904010BD10
:1001C00010B5202A04DB0846203AD040002110BD9B
:1001D0000B46D340D0402024A21A91400843194630
:1001E00010BD0000064C0125064E05E0E36807CC73
:1001F0002B430C3C98471034B442F7D3FFF764FF0D
:1002000088240008A824000838B504460648054993
:100210000068FFF76DFF604300E0401E009000287B
:10022000FBD138BD40420F002000002010B502482D
:1002300000F0FEF910BD00009803002010B5024840
:1002400000F0F6F910BD0000E003002010B50248F0
:1002500000F0EEF910BD00002804002030B5446C19
:100260001C252C400125A540046C65600468636072
:100270008368102B036803D099600068C26030BDAA
:100280009A600068C16030BD70470000F8B506464E
:100290000D464036317C01290DD0012131740168B1
:1002A0008A68520709D5416D20221143416500201B
:1002B00030740120F8BD0220F8BD174B6A68D805DC
:1002C00047109A42154C8A6A2B6812D05B035B0B6D
:1002D0001A438A622968490305D5A1680143A160D0
:1002E0000A20FFF791FF2868800312D5A0683843E1
:1002F0000EE05B035B0B9A438A622968490302D5CF
:10030000A1688143A1602868800302D5A068B84332
:10031000A06000203074F8BD0110000000270140EB
:1003200070B5040006D0606D2646002540360028D2
:1003300002D006E0012070BDA5653574204600F0AE
:10034000D3F8606DC00603D421688868400705D5DE
:10035000606D1021084360653574EBE7606DFF2226
:100360000132904302221043606588688207920F31
:100370005B48012A02D10A68D2072BD103236268A5
:100380009B079A4205D05B429A4202D05B009A4298
:1003900009D10A69920092080A6121680A696368B2
:1003A0001A430A610CE00A69920092080A618168A6
:1003B0000F229204914381608168626811438160D9
:1003C0002168CA6818239A43CA602168CA68A3686A
:1003D0001A43CA6081680122520691438160816894
:1003E000A28E52061143816020688168C90004D43E
:1003F000816801221207114381602068C168394A6F
:100400001140C1602069E168022825D00020014325
:10041000204620300278037B52035B001A431143CD
:10042000226B1143A26992031143E269D203114383
:100430002268D3681943D160616A0A46FF3AC23A1A
:1004400005D0A26A11432268D3681943D16042786B
:100450000121012A02D00BE00420D8E7007800280F
:1004600023D0606D202210436065A06D0843A06515
:10047000E06B012820681FD00169C90703D001691A
:1004800049084900016120684169C908C900416102
:1004900020684169A26B11434161A565606D8008C8
:1004A0008000401C6065002070BD2068C268012388
:1004B0001B041A43C260DBE70269FF239B009A43D7
:1004C000026120680269236CA66C1A43636C334393
:1004D0001A430261206802690A430261D3E70000FF
:1004E000002701401902FEFF70B586B006461421B0
:1004F0006846FFF74AFE1A49306888422ED11949EA
:10050000486B4A1510434863C86A01221043C86209
:10051000C86A0025104005906F20009003200190CC
:10052000052069460295000700F064F90E480F4C5B
:1005300021C4256080206560A0604000E0608000EC
:1005400020612020A56160610848083C00F0C4F8E3
:10055000002801D0FFF798FEF464A66206B070BDD3
:1005600000240140001002400800024098030020CF
:1005700070B54379012B19D0012545710223037110
:10058000066834680A4B93409C430B6849680B43E8
:1005900093402343336001680B68C0249440A34315
:1005A0000B60057100214171084670BD022070BDCD
:1005B000FE0F000070B5040004D02079002500284B
:1005C00002D005E0012070BD6571204600F008F8FA
:1005D00002202071256101202071002070BD0000E3
:1005E00010B586B0044614216846FFF7CEFD0E49CB
:1005F0002068884216D10D48816B42041143816303
:10060000C16A01221143C162C06A69461040059067
:100610001020009003200190002002900520000788
:1006200000F0E8F806B010BD007400400010024071
:10063000F0B4016C0D6801680C68466C1C23042240
:100640001E401746B7402F420ED067070CD50C68E6
:10065000A40602D40C6894430C60416C19408A4093
:10066000016C4A60016B1AE00227B74002462F4036
:100670002032002F17D0A70715D50C68A40605D483
:100680000C680A25AC430C6001215171446C0221B5
:100690001C40036CA140596000211171C16A0029FE
:1006A00018D0F0BC08470827B7402F4212D02407C3
:1006B00010D50C680E25AC430C60446C01211C4025
:1006C0000B46A340046C6360C1635171002111713A
:1006D000416BE4E7F0BC704770B504003CD01F48A4
:1006E000256814212818FFF703FD800060641C486A
:1006F00020640221204620300246417129681948B1
:10070000E3680140A06866691843236933431843CE
:10071000A3691843E3691843236A18430843286010
:100720000121A0688903884210D00D488030836A77
:10073000656C1C210D400F26AE40B3438362656C8F
:1007400063680D40816AAB400B4383620020E06325
:1007500001215171107170BD012070BDF8FFFDBF06
:10076000000002400F80FFFFF8B504468C462030A1
:1007700001790025012909D0012606714179002758
:10078000012905D0077102252846F8BD0220F8BDD1
:1007900002214171E763206801684908490001604E
:1007A00061462046FFF75AFD206B0028206801684B
:1007B00001D00E2205E00422914301602068016807
:1007C0000A22114301602068016831430160DBE7C0
:1007D00070B5044600F0DEF80546601C02D00448FF
:1007E0000078241800F0D6F8401BA042FAD370BD60
:1007F00014000020FCB500230124A7E027462A4668
:100800009F403A406FD04D68012D05D0022D03D096
:10081000112D01D0122D16D185680326AC465D003E
:10082000AE46AE406546B543AC46CE687546AE4072
:1008300065462E43866046680D79BE43ED06ED0F92
:100840009D4035434560C6685F000325BD40AE4608
:10085000AE4335468E68BE402E43C6604E68022EBB
:1008600001D0122E14D1DE08B60036180196366A71
:100870005D07B446EE0E0F25B54000966646AE43C2
:10088000B4460D69009EB54066462E43019D2E621A
:1008900006687546AE430D79AD07AD0FBD403543D3
:1008A00005604D68ED0050D52B4D6E6B26436E6391
:1008B0009E082A4DB6007519AC46AD689E07360FE6
:1008C0000F27B740BD4305273F07B84201D1002796
:1008D0001AE0234FB84201D1012715E0214FB84259
:1008E00002D1022710E030E01F4FB84201D10327A8
:1008F0000AE01E4FB84201D1042705E01C4FB84260
:1009000001D1052700E00627B7402F436546AF60B9
:10091000184D2E684F689643FF0300D516432E608E
:100920006E684F689643BF0300D516436E60AE688D
:100930004F689643FF0200D51643AE60EE684F68DD
:100940009643BF0200D51643EE605B1C0A6815464D
:10095000DA4000D052E7FCBD001002400000014028
:100960000004005000080050000C0050001000501F
:10097000001C005000040140426913460B401B0458
:1009800091430B4383617047002A01D08161704716
:1009900081627047014880687047000014000020A1
:1009A000024881680278891881607047140000202D
:1009B00010B5084800240168402211430160204618
:1009C00000F00AF8002801D0012401E000F026F828
:1009D000204610BD0020024070B504460D4D7D201C
:1009E0002978C000FFF784FB01460B480068FFF739
:1009F0007FFB00F0AFFD002809D1042C07D20022B4
:100A00002146401E00F020F800206C6070BD0120DF
:100A100070BD000014000020200000200448416B3D
:100A2000012211434163816B0204114381637047CA
:100A300000100240C106C90E01208840014908602B
:100A40007047000000E100E010B501F0EBF810BDC8
:100A5000F8B5044600785E4D800672D55C4E0027DE
:100A6000403EB06BC00004D4B06BA9050843B0632E
:100A7000012758480168C90511D40168821511433E
:100A80000160FFF787FF009005E0FFF783FF009903
:100A9000401A642837D84F480068C005F5D5326839
:100AA0000321090560680A400140914208D0810392
:100AB000890F032904D13168890301D50120F8BDCC
:100AC0002A69032109040A4022D0084090421FD01D
:100AD000207880061CD528692A6988430121C90429
:100AE0000A432A612A698A432A612861C0050FD511
:100AF000FFF750FF009008E0FFF74CFF0099411A04
:100B00003548814201D90320F8BD28698005F3D515
:100B100061688803800F032805D13268000582438D
:100B200001400A43326028690322616812041140BF
:100B300008432861002F04D0B06B012109078843C6
:100B4000B0632078C00705D0E868A16880088000FD
:100B50000843E8602078800705D5E8680C218843C1
:100B6000E1680843E8602078400706D5E86803217B
:100B70008902884321690843E8602078000706D588
:100B8000E86803210903884361690843E860208815
:100B9000C00506D5E868032109048843A169084314
:100BA000E8602078400606D5E86801218906884378
:100BB000216A0843E8602078000606D5E86803212A
:100BC00089048843E1690843E8600020F8BD00001B
:100BD000401002400070004088130000F8B50E4637
:100BE00005007DD053480068C007C00FB0420AD24C
:100BF0005048016849084900314301600068C00756
:100C0000C00FB04271D128784B4C800705D5E06801
:100C1000F0218843A9680843E0602878C00752D0D3
:100C20006868022817D0032818D02168012818D036
:100C30008905002959DAE168890889000143E160E2
:100C4000FFF7A8FE69680746022912D003291CD0C5
:100C5000012926D033E021688903EAE72168890168
:100C6000E7E74907E5E7FFF795FEC11B33488142F7
:100C700023D8E0680007800F0228F4D123E0FFF7B3
:100C800089FEC11B2D48814217D8E0680007800FFC
:100C90000328F4D117E0FFF77DFEC11B27488142EE
:100CA0000BD8E0680007800F0128F4D10BE0FFF7B4
:100CB00071FEC11B2148814201D90320F8BDE068C3
:100CC0000007800FF3D11B480168C907C90FB14263
:100CD0000DD901684908490031430160006800E00E
:100CE00003E0C007C00FB04201D00120F8BD287852
:100CF000400706D5E068072109028843E9680843F0
:100D0000E0602878000707D5E0680721C90288431A
:100D10002969C9000843E06000F036F8E168084A34
:100D20000906090F515CC840064908600020FFF71A
:100D300053FEF8BD0020024000100240881300005E
:100D40006424000820000020044805490068C968A0
:100D5000044A4905490F515CC840704720000020F3
:100D6000001002407D240008044805490068C96855
:100D7000044A8904490F515CC84070472000002094
:100D8000001002407D24000810B5184AD1680C20DC
:100D9000084004280BD0082810D00C2810D0506828
:100DA0000004410F0120C003491C884010BD106899
:100DB000C00601D50E4810BD0E4810BD0E4810BD2E
:100DC00088020E4B000F185C0902D368890F491C7A
:100DD000DB0301D5084A05E01268D20601D5044AB2
:100DE00000E0044A5043FFF783F910BD00100240B1
:100DF00000093D000024F40000127A007424000869
:100E0000FEB505007ED0F94CE7680C20E668074087
:100E10000120000406402878C00747D0082F05D0DD
:100E20000C2F0AD101200004864206D120688003DD
:100E30003CD568680028E5D038E0012069680004E6
:100E4000814203D121680143216011E00523012281
:100E50001B0492049942216802D111432160F1E7F9
:100E60008143216021680140009120689043206007
:100E7000686800280DD0FFF78DFD009005E0FFF7B2
:100E800089FD0099401A64287ED820688003F6D531
:100E90000CE0FFF77FFD009005E0FFF77BFD009978
:100EA000401A6428F0D820688003F6D42878800798
:100EB0005CD5E868810604D5226820210A432260B7
:100EC00088430923042F0DD00C2F01D1002E09D007
:100ED00000283BD02168994301432160FFF75AFD68
:100EE000064627E02168490701D500288AD06168B5
:100EF0001F22120291432A69120211436160216884
:100F0000994300E0C3E101432160FFF73DFFE16841
:100F100009060A0FB649895CC840B6490860002036
:100F2000FFF75AFD002873D120E0FFF733FD801B47
:100F30000228A9D820684007F7D560681F21090258
:100F4000884329690902084360600FE0206840086F
:100F500040002060FFF71EFD064604E0FFF71AFD83
:100F6000801B022890D820684007F7D42878C00654
:100F700060D5002F0DD0E86900284AD02068FF21F5
:100F800001310843206000E0E8E0FFF703FD06467A
:100F90002CE02068800502D5E8690028A6D06068AA
:100FA000072149038843696A084360606068298CA7
:100FB0000002000A090608436060686A410B0120CC
:100FC000C003491C8840E16809060A0F8849895C0A
:100FD000C840884908600020FFF7FEFC002817D1B0
:100FE00028E0FFF7D7FC801B0228A2D820688005E4
:100FF000F7D56068072149038843696A0843606040
:101000006068298C0002000A09060843606011E04C
:1010100023E12168FF20013081432160FFF7BAFC02
:10102000064604E0FFF7B6FC801B02289AD8206829
:101030008005F7D42878704E000724D56869002809
:10104000306910D0012108433061FFF7A3FC009004
:1010500005E0FFF79FFC0099401A02287ED830690E
:101060008007F6D50FE0400840003061FFF792FCA2
:10107000009005E0FFF78EFC0099401A02286DD819
:1010800030698007F6D42878400764D500200290A4
:10109000A06BC00006D4A06B012109070843A06320
:1010A0000120029055480168C90511D401688215D4
:1010B00011430160FFF76EFC009005E0FFF76AFC4A
:1010C0000099401A642849D84C480068C005F5D5F5
:1010D000FF20AA680130824203D1316901433161A6
:1010E00011E001218902002A07D005231B029A4240
:1010F00003D132690A433261EFE7326982433261D8
:10110000306988433061A86800280ED0FFF742FCA0
:10111000009006E0FFF73EFC0099411A38488142F2
:101120001CD830698005F5D50DE0FFF733FC009041
:1011300006E0FFF72FFC0099411A314881420DD893
:1011400030698005F5D40298002804D0A06B0121F5
:1011500009078843A0632878800600E07CE02ED54C
:101160002848A9694314002916D0A26801210A431E
:10117000A260626B0A436263016A19430162FFF76E
:1011800009FC064604E0FFF705FC801B022863D833
:10119000A0688007F7D512E0A16849084900A1605E
:1011A000016A99430162FFF7F5FB064604E0FFF789
:1011B000F1FB801B02284FD8A0688007F7D4A86AEB
:1011C000002866D00C2F4DD0012636060228206854
:1011D00005D0B0432060FFF7DDFB05463EE0B0439D
:1011E0002060FFF7D7FB074613E000000010024025
:1011F00064240008200000204010024000700040DD
:101200008813000000000140FFF7C4FBC01B022848
:1012100022D820688001F7D4296BE86AE268084385
:10122000696BFD231B049A4311430843E060206867
:1012300030432060FFF7AEFB054604E0FFF7AAFB52
:10124000401B022808D820688001F7D521E0FFF76D
:10125000A1FB401B022801D90320FEBD20688001AC
:10126000F5D416E00128F8D0E06801210904EA6A03
:10127000014091420BD10F2189042A6B0140914218
:1012800005D1032189050840696B884201D00120FE
:10129000FEBD0020FEBD0000F8B5040050D025467C
:1012A00020356878002803D12870204600F052F8D5
:1012B000022068702168CA20486221685320486271
:1012C000204600F0DEFCFF2604270028206802D01C
:1012D00046626F7034E081681D4A11408160216868
:1012E00088686268A369104322691A4310438860C2
:1012F0002168E068086120680169228912041143AD
:1013000001612068C16880229143C1602068C16C7E
:1013100089088900C164E169606901432068C26C81
:101320001143C1642068806880060BD4204600F019
:10133000F7F8002806D0206846626F7000202870F9
:101340000120F8BD20684662012068700020F8BDC9
:10135000BFFF8FFF00680549884205D10448016935
:1013600001229204114301617047000000280040EF
:1013700040100240F8B505460446203528780B4653
:1013800001280FD00120287002206870002A0BD09D
:10139000D8789E78000406435878097800024903FB
:1013A000084317E00220F8BD5878C10603D5EF21A5
:1013B00008400A305870D87800F057FC0604587876
:1013C00000F053FC00020643987800F04EFC064300
:1013D0001878400306432168CA20486221685320D8
:1013E0004862204600F04DFC0027002811D111482A
:1013F0000640206846602068C16880229143C16031
:101400002068806880060CD4204600F089F8002807
:1014100007D02168FF204862042068702F700120E7
:10142000F8BD2168FF204862012068702F700020FD
:10143000F8BD00003FFFFF00F8B506460446203621
:1014400030780D46012822D00120307002207070C3
:10145000206800278068002A1BD0400600D4EF7067
:101460002978A878090408436978EA7809021204FF
:101470001143084300902168CA2048622168532024
:101480004862204600F0FDFB002837D116E002201C
:10149000F8BD400600D4EF70287800F0E6FB0304A6
:1014A000687800F0E2FB00020343A87800F0DDFB5F
:1014B0000343E878000403430093DCE717490098EE
:1014C00008402168086020688168012292049143E5
:1014D00081602969E868084321688A681043886048
:1014E0002068C16880229143C160206880688006BE
:1014F0000CD4204600F014F8002807D02168FF2003
:1015000048620420707037700120F8BD2168FF2008
:1015100048620120707037700020F8BD7F7F7F0027
:1015200070B504460068C168A0229143C160FFF70E
:1015300031FA7D260546F60006E0FFF72BFA401B40
:10154000B04201D9032070BD2068C0688006F4D580
:10155000002070BD094910B5401E884201D9012004
:1015600010BD074C60610321081F00F05BFB0020E9
:10157000A06107202061002010BD0000FFFFFF00D8
:1015800000E000E0F0B502462032137E012B15D0BA
:10159000012717760223537605686C68AB687026BE
:1015A000B4430E68496826438024A34319436E6000
:1015B00000688160577600201076F0BD0220F0BDF3
:1015C00070B5040005D025462035687E002802D07D
:1015D00006E0012070BD00202876204600F00AF8C1
:1015E00002206876211D206800F0D8FB0120687673
:1015F000002070BD10B50068084988420CD1084829
:10160000816B202211438163002211461220FFF7D3
:101610001BFA1220FFF70EFA10BD00000014004064
:1016200000100240704770B504460068016900254B
:10163000C9438907002915DBC168C943890711D44B
:10164000E91E01610120207620688069800720461C
:1016500002D0FFF7E7FF04E000F078F8204600F042
:1016600076F8257620680169C943490717D4C1680F
:10167000C943490713D40421C943016102202076DC
:10168000206880698005800F204602D0FFF7CAFFDE
:1016900004E000F05BF8204600F059F82576206859
:1016A0000169C943090716D4C168C943090712D49F
:1016B0000821C9430161042020762068C0698007A1
:1016C000204602D0FFF7AEFF04E000F03FF82046CE
:1016D00000F03DF8257620680169C943C90617D492
:1016E000C168C943C90613D41021C9430161082048
:1016F00020762068C0698005800F204602D0FFF761
:1017000091FF04E000F022F8204600F020F8257652
:1017100020680169C943C90708D1C168C943C9071D
:1017200004D1891E0161204600F012F82068016989
:10173000C943490609D4C168C943490605D44021B3
:10174000C9430161204600F004F870BD704770473E
:1017500070477047704710B5040003D0606F0028D1
:1017600002D007E0012010BD002170200155204665
:1017700000F026F8242060672068016849084900C5
:101780000160204600F034FC0128ECD0606A00289B
:1017900002D0204600F036FB206841680922D202C0
:1017A00091434160206881682A22914381602068CA
:1017B0000168012211430160204600F089FB10BD41
:1017C000F0B587B0064614216846FEF7DEFC2E4BC6
:1017D000326800242D48022103279A4225D1826BCA
:1017E0004B041A438263C26A0A43C262C06A6A46F1
:1017F00008400590B80293C2072004906946244827
:10180000FEF7F8FF244D23482860AC600520EC600B
:1018100068606C61AC61EC6180202C6228612846B4
:101820002BE0F566AE6207B0F0BD1C4B9A42FAD1D0
:10183000426B01239B031A434263C26A01231A438A
:10184000C262C06A6A46184005900320400293C2F3
:1018500004200490052069460007FEF7CBFF104DD9
:101860000C48AC602830EC6081C5EC602C616C6188
:101870008020AC61A8600A48083DFEF72DFF0028D3
:10188000CFD0FEF701FDCCE7004800400010024039
:101890000004005030000240E00300200038014006
:1018A00028040020F8B50446806F20284DD1002977
:1018B0000BD0002A09D00123A0681B03984206D14F
:1018C0002069002803D1C80701D00120F8BD2546B2
:1018D0006035287C012838D00120287458206165A3
:1018E00002530026E6672220A067E06E002819D088
:1018F0001749C162E16E17480863E16E16484863F4
:10190000E06E13468663676D21683A462431E06EC7
:10191000FEF72AFF002805D01020E0672E74202053
:101920006067D2E72E7420680168FF2201321143FC
:10193000016020688168012211438160206881680C
:101940004022114381600020F8BD0220F8BD000054
:10195000791F0008B71F0008311F0008064910B59D
:10196000FF2208469132E038FFF79CFF0121C903AE
:101970000248FFF701F810BD0802002000040050E3
:101980007047FFB50446406F83B017460D462028C8
:101990005CD1002D0AD0002F08D0A168C00181427F
:1019A00007D12069002804D1E80702D0012007B040
:1019B000F0BD204660300290007C012846D002989D
:1019C000012101740020E06721206067FEF7E2FF3B
:1019D000264640360190378277820120A1680003B5
:1019E000814202D12069002802D02F46002511E053
:1019F00000270FE000228021204600F017FC00287D
:101A000015D1002F15D02168387888627F1C708A24
:101A1000401E7082708A019B002806980090E9D1D0
:101A200000224021204600F001FC002808D00320BD
:101A3000BDE728882168C005C00D8862AD1CE6E7B7
:101A400020206067029900200874B0E70220AEE70A
:101A5000FEE700001CB5002123480091214A0191B6
:101A60000260C163816003220124816392070461E3
:101A700042600246C16020321170FF235170C233B0
:101A80004362816214730163816104224163426194
:101A9000C161FEF745FC200301906946009412489D
:101AA000FEF7F4FB1148009069460F48FEF7EEFB85
:101AB0000F48009069460C48FEF7E8FB0D4800907F
:101AC00069460948FEF7E2FB0B4800906946064864
:101AD000FEF7DCFB0948009069460348FEF7D6FB99
:101AE0001CBD00000024014038000020020000045A
:101AF000040000080800000C20000014400000183A
:101B0000F0B587B014216846FEF73FFB1B48C26A58
:101B100004210A43C262C26A0A400592C16A0125D1
:101B20002943C162C16A29400591C26A02210A4360
:101B3000C262C06A03240840114FA403059000222A
:101B400021463846FEF720FF0E4E002231460E4851
:101B5000FEF71AFF00940024019502946946384666
:101B60000394FEF747FE02946946074800960195E4
:101B70000394FEF73FFE07B0F0BD000000100240E6
:101B800000080050148000000004005010B586B01A
:101B900014216846FEF7F9FA002413491348059406
:101BA00012C07F2101608460C4600461FF21446130
:101BB00041600838FFF770FB684604704470847019
:101BC00003940122694609480494FFF735FC01217A
:101BD0006846017541758175C4750A4605A90348B3
:101BE000FFF7C8FB06B010BD00280040A801002088
:101BF00010B50A4808490160E1214902416000210D
:101C00008160C16001618161C1610C220162426138
:101C10004162FFF7A0FD10BD0038014028010020FF
:101C2000704700008307FF22DB0E9A408907090EE8
:101C3000994000280BDA0007000F0838830808488D
:101C40009B001818C36993430B43C3617047830813
:101C500004489B001B18186890430843186070479D
:101C600000ED00E000E400E070470022014602E0E1
:101C70000A39C9B2521C0A29FAD21007000E0843C9
:101C8000704770B504460068C168490613D4002146
:101C9000C943C160FEF77EFE7D260546F60006E0DC
:101CA000FEF778FE401BB04201D9032070BD2068CA
:101CB000C0684006F4D5002070BD704710B5FEF72F
:101CC0006FFE10BD30B59DB038216846FEF75DFA55
:101CD000142117A8FEF759FA24210EA8FEF755FA89
:101CE000144801680322D2029143C214891801608A
:101CF0000A200090012510200024059504900395EA
:101D00000A946846FFF77CF80F20179019941A94EC
:101D1000002118951B9417A8FEF760FF25200E9050
:101D200068040F90109412940EA8FEF791FE1DB057
:101D300030BD00000070004010480168821511435A
:101D40000160C1680E4A1140C16001680D4A11402E
:101D5000016081684908490081600168012292049C
:101D600091430160C168FD2212049143C1600021CA
:101D700001610549C00388607047000000100240FF
:101D80000C40FF88F6FFF6FE00ED00E010B50248BB
:101D9000FFF749FC10BD0000CC010020F0B502683F
:101DA0000124A407144D154E154FA04205D0A8429A
:101DB00003D0B04201D0B84204D1134670229343FD
:101DC0004A681A43A04205D0A84203D0B04201D0CD
:101DD000B84204D103231B029A43CB681A438023E1
:101DE0009A430B691A4302608A68C2620968816279
:101DF00001214161F0BD00000004004000080140E5
:101E00000014014010B5818CC90707D001684A68E9
:101E100001235B049A43836A1A434A60818C8907D1
:101E200007D501684A6801231B049A43C36A1A4311
:101E30004A60818C490707D501684A6801239B04E1
:101E40009A43036B1A434A60818C090707D50168DE
:101E50004A680123DB039A43436B1A434A60818C2F
:101E6000C90607D50268916801231B039943836B58
:101E700019439160818C890607D501688A6801231E
:101E80005B039A43C36B1A438A60818C490612D55F
:101E900003685A6801210905046C8A4322435A6089
:101EA000026C8A4207D10268516803235B0599439B
:101EB000436C19435160818C090607D501684A6853
:101EC0000123DB04806C9A4302434A6010BD00008A
:101ED000F8B500260446C667FEF75CFD0546206897
:101EE0000068124F000709D501212B460022490541
:101EF0002046009700F09AF900280DD1206800686C
:101F000040070BD501212B4600228905204600976A
:101F100000F08CF9002801D00320F8BD2020606774
:101F2000A067603426740020F8BD0000FFFFFF01A9
:101F300070B5846A606FA56F2168896800260906FC
:101F4000002906DA212804D152200653204600F049
:101F500047F820688068400606D5222D04D15A2013
:101F60000653204600F02CF8E06F10210843E0678C
:101F70002046FFF7EFFB70BD10B501460968806A87
:101F80000968890614D400225A210A5201680A6895
:101F9000FF2301339A430A6001688A68520852009D
:101FA0008A6001688A6840239A438A602021816799
:101FB000FFF7D4FC10BD10B5806AFFF7E1FC10BD3F
:101FC00001680A68FF2321339A430A6001688A681E
:101FD000520852008A602021816700210166704703
:101FE00001680A68C0239A430A602021416770474C
:101FF000F8B504462669A268E7693243666910208D
:1020000000253E43236832437B491E687B4F3E4098
:1020100016431E602268536803263603B343E668FE
:10202000334353602368A2698B4201D0266A32434E
:102030009E680B273F02BE4316439E60704E236886
:10204000704AB3420CD1D2689207920F06D0012A8F
:102050003ED0022A3AD0032A26D124E0012023E0F0
:10206000694EB3420AD1D2680C2632402CD0042AE1
:102070002ED0082A2AD00C2A16D114E0634EB3427F
:1020800022D0634EB3421FD08B420DD1D6680322BB
:102090009202164018D001229202B61A18D0B61A2F
:1020A00014D0964200D10820564A0126403A594F92
:1020B000F6038B4236D100280CD002280DD004281C
:1020C00012D008281FD11CE00020EDE70220EBE72A
:1020D0000420E9E7FEF738FE08E01068C00601D5E5
:1020E000384605E04C4803E0FEF74EFE002873D06A
:1020F000626851005118814205D81103814202D310
:1021000003E03046F4E7012566E0010E06025008C0
:10211000002330185941FEF701F803210902411A42
:102120003E4A55E0E169B14232D1030000F0AFF818
:1021300009070A0D06250606062B0600E3E7FEF74B
:1021400003FE1CE0FEF710FE19E010686168C0068F
:1021500002D54808324A01E0324A48088018FDF7A3
:10216000C7FF80B20146304A10399142CBD8511C8A
:1021700001400007400F08432CE0FEF705FE6168B0
:1021800040004A08EAE76168012248081204E5E7CE
:10219000030000F07CF809070A0D06260606062C47
:1021A0000600B0E7FEF7D0FD1DE0FEF7DDFD1AE00A
:1021B00010686168C00602D54808C01902E01648D8
:1021C0004A081018FDF794FF80B20146164A1039EC
:1021D000914298D82168C860002020666066284631
:1021E000F8BDFEF7D1FD61684A088018EAE761682A
:1021F00048088019E6E7000000480040F369FFEF57
:10220000003801404010024000440040004C0040B3
:102210000050004000093D000024F400FFFC0F00C6
:1022200000127A000048E801EFFF0000FFB581B01E
:1022300017460E4604460A9D09E0681C07D0FEF7C3
:10224000A9FB0499401AA8420CD8002D0AD0206896
:10225000C1693046884318D00020B842EDD0002034
:1022600005B0F0BD20680168FF22A13291430160F2
:102270002068816849084900816020206067A06764
:102280000020603420740320EAE70120E5E730B441
:102290007446641E2578641CAB4200D21D46635D03
:1022A0005B00E31830BC184702E008C8121F08C1E1
:1022B000002AFAD170477047002001E001C1121FC7
:1022C000002AFBD1704700001CB5FEF771FBFFF739
:1022D000F9FCFFF715FC5A48016B01221143016319
:1022E000006B10400022009011460920FEF7ACFB65
:1022F0000920FEF79FFB002211460A20FEF7A4FBEF
:102300000A20FEF797FB002211460B20FEF79CFBEC
:102310000B20FEF78FFB00244B49009449480194A1
:1023200008600846FEF746F90094002269464648D0
:102330000194FEF71DF9FFF78DFB43484349143024
:10234000016084604B21C460C90104614160846103
:1023500004620C2144624161FFF7FDF9FFF748FC7C
:102360003B493C480094019412C004604460C4603E
:102370000838FFF725F90094694636480194FFF7BD
:1023800001F9FFF703FC3349FF223C310846913243
:10239000E038FFF787FA2C4801222F491430FFF765
:1023A00081FA2D4EFF273546F5372878707034288E
:1023B00041D008DC302825D0312821D0322834D033
:1023C000332825D12FE0352833D0432802D0532895
:1023D0001ED104E0204964230422891D03E01E4924
:1023E00064230A220A3118489430FFF7CAFA1949BF
:1023F000FF223C3108469132E038FFF753FA07E0FC
:10240000012200E000220121C90317E0FEF7BCFA17
:102410000D48012210491430FFF744FA2C70384659
:10242000FEF7D6F9C1E7012200E0002204210B48A3
:10243000ECE7012200E00022012189030848E5E7DA
:10244000001002400074004094000020004800404A
:1024500000140040CC0100200000002000040050C7
:10246000000800500000000000000000010203040A
:1024700006070809030406080C10182030000000A5
:102480000001020304000000A8240008000000204E
:1024900024000000A8220008CC240008240000200A
:1024A0004C080000B8220008000000000000415461
:1024B0000D0A41542B43574C41500D0A01000000B6
:0C24C000040000000000000000002000EC
:04000005080000C12E
:00000001FF
